{
	"CONTRACTS/Task_2.sol": {
		"DataTypesPractice": {
			"abi": [
				{
					"inputs": [],
					"stateMutability": "nonpayable",
					"type": "constructor"
				},
				{
					"inputs": [],
					"name": "addressValue",
					"outputs": [
						{
							"internalType": "address",
							"name": "",
							"type": "address"
						}
					],
					"stateMutability": "view",
					"type": "function"
				},
				{
					"inputs": [
						{
							"internalType": "uint256",
							"name": "",
							"type": "uint256"
						}
					],
					"name": "arrayUint5Value",
					"outputs": [
						{
							"internalType": "uint256",
							"name": "",
							"type": "uint256"
						}
					],
					"stateMutability": "view",
					"type": "function"
				},
				{
					"inputs": [
						{
							"internalType": "uint256",
							"name": "",
							"type": "uint256"
						}
					],
					"name": "arrayUintValue",
					"outputs": [
						{
							"internalType": "uint256",
							"name": "",
							"type": "uint256"
						}
					],
					"stateMutability": "view",
					"type": "function"
				},
				{
					"inputs": [],
					"name": "boolValue",
					"outputs": [
						{
							"internalType": "bool",
							"name": "",
							"type": "bool"
						}
					],
					"stateMutability": "view",
					"type": "function"
				},
				{
					"inputs": [],
					"name": "bytes32Value",
					"outputs": [
						{
							"internalType": "bytes32",
							"name": "",
							"type": "bytes32"
						}
					],
					"stateMutability": "view",
					"type": "function"
				},
				{
					"inputs": [],
					"name": "getAddress",
					"outputs": [
						{
							"internalType": "address",
							"name": "",
							"type": "address"
						}
					],
					"stateMutability": "view",
					"type": "function"
				},
				{
					"inputs": [],
					"name": "getArrayUint",
					"outputs": [
						{
							"internalType": "uint256[]",
							"name": "",
							"type": "uint256[]"
						}
					],
					"stateMutability": "view",
					"type": "function"
				},
				{
					"inputs": [],
					"name": "getArrayUint5",
					"outputs": [
						{
							"internalType": "uint256[5]",
							"name": "",
							"type": "uint256[5]"
						}
					],
					"stateMutability": "view",
					"type": "function"
				},
				{
					"inputs": [],
					"name": "getBigUint",
					"outputs": [
						{
							"internalType": "uint256",
							"name": "",
							"type": "uint256"
						}
					],
					"stateMutability": "pure",
					"type": "function"
				},
				{
					"inputs": [],
					"name": "getBool",
					"outputs": [
						{
							"internalType": "bool",
							"name": "",
							"type": "bool"
						}
					],
					"stateMutability": "view",
					"type": "function"
				},
				{
					"inputs": [],
					"name": "getBytes32",
					"outputs": [
						{
							"internalType": "bytes32",
							"name": "",
							"type": "bytes32"
						}
					],
					"stateMutability": "view",
					"type": "function"
				},
				{
					"inputs": [],
					"name": "getInt256",
					"outputs": [
						{
							"internalType": "int256",
							"name": "",
							"type": "int256"
						}
					],
					"stateMutability": "view",
					"type": "function"
				},
				{
					"inputs": [],
					"name": "getInt8",
					"outputs": [
						{
							"internalType": "int8",
							"name": "",
							"type": "int8"
						}
					],
					"stateMutability": "view",
					"type": "function"
				},
				{
					"inputs": [],
					"name": "getString",
					"outputs": [
						{
							"internalType": "string",
							"name": "",
							"type": "string"
						}
					],
					"stateMutability": "view",
					"type": "function"
				},
				{
					"inputs": [],
					"name": "getUint256",
					"outputs": [
						{
							"internalType": "uint256",
							"name": "",
							"type": "uint256"
						}
					],
					"stateMutability": "view",
					"type": "function"
				},
				{
					"inputs": [],
					"name": "getUint8",
					"outputs": [
						{
							"internalType": "uint8",
							"name": "",
							"type": "uint8"
						}
					],
					"stateMutability": "view",
					"type": "function"
				},
				{
					"inputs": [],
					"name": "int256Value",
					"outputs": [
						{
							"internalType": "int256",
							"name": "",
							"type": "int256"
						}
					],
					"stateMutability": "view",
					"type": "function"
				},
				{
					"inputs": [],
					"name": "int8Value",
					"outputs": [
						{
							"internalType": "int8",
							"name": "",
							"type": "int8"
						}
					],
					"stateMutability": "view",
					"type": "function"
				},
				{
					"inputs": [],
					"name": "stringValue",
					"outputs": [
						{
							"internalType": "string",
							"name": "",
							"type": "string"
						}
					],
					"stateMutability": "view",
					"type": "function"
				},
				{
					"inputs": [],
					"name": "uint256Value",
					"outputs": [
						{
							"internalType": "uint256",
							"name": "",
							"type": "uint256"
						}
					],
					"stateMutability": "view",
					"type": "function"
				},
				{
					"inputs": [],
					"name": "uint8Value",
					"outputs": [
						{
							"internalType": "uint8",
							"name": "",
							"type": "uint8"
						}
					],
					"stateMutability": "view",
					"type": "function"
				}
			],
			"devdoc": {
				"kind": "dev",
				"methods": {},
				"version": 1
			},
			"evm": {
				"assembly": "    /* \"CONTRACTS/Task_2.sol\":106:2072  contract DataTypesPractice is IDataTypesPractice {... */\n  mstore(0x40, 0x80)\n    /* \"CONTRACTS/Task_2.sol\":189:191  -1 */\n  0xffffffffffffffffffffffffffffffffffffffffffffffffffffffffffffffff\n    /* \"CONTRACTS/Task_2.sol\":161:191  int256 public int256Value = -1 */\n  0x00\n  sstore\n    /* \"CONTRACTS/Task_2.sol\":227:228  1 */\n  0x01\n    /* \"CONTRACTS/Task_2.sol\":197:228  uint256 public uint256Value = 1 */\n  dup1\n  sstore\n    /* \"CONTRACTS/Task_2.sol\":258:260  -1 */\n  0xffffffffffffffffffffffffffffffffffffffffffffffffffffffffffffffff\n    /* \"CONTRACTS/Task_2.sol\":234:260  int8 public int8Value = -1 */\n  0x02\n  exp(0x0100, 0x00)\n  dup2\n  sload\n  dup2\n  0xff\n  mul\n  not\n  and\n  swap1\n  dup4\n  0x00\n  signextend\n  0xff\n  and\n  mul\n  or\n  swap1\n  sstore\n  pop\n    /* \"CONTRACTS/Task_2.sol\":292:293  1 */\n  0x01\n    /* \"CONTRACTS/Task_2.sol\":266:293  uint8 public uint8Value = 1 */\n  0x02\n  exp(0x0100, 0x01)\n  dup2\n  sload\n  dup2\n  0xff\n  mul\n  not\n  and\n  swap1\n  dup4\n  0xff\n  and\n  mul\n  or\n  swap1\n  sstore\n  pop\n    /* \"CONTRACTS/Task_2.sol\":323:327  true */\n  0x01\n    /* \"CONTRACTS/Task_2.sol\":299:327  bool public boolValue = true */\n  0x02\n  dup1\n  0x0100\n  exp\n  dup2\n  sload\n  dup2\n  0xff\n  mul\n  not\n  and\n  swap1\n  dup4\n  iszero\n  iszero\n  mul\n  or\n  swap1\n  sstore\n  pop\n    /* \"CONTRACTS/Task_2.sol\":363:405  0xdCad3a6d3569DF655070DEd06cb7A1b2Ccd1D3AF */\n  0xdcad3a6d3569df655070ded06cb7a1b2ccd1d3af\n    /* \"CONTRACTS/Task_2.sol\":333:405  address public addressValue = 0xdCad3a6d3569DF655070DEd06cb7A1b2Ccd1D3AF */\n  0x02\n  exp(0x0100, 0x03)\n  dup2\n  sload\n  dup2\n  0xffffffffffffffffffffffffffffffffffffffff\n  mul\n  not\n  and\n  swap1\n  dup4\n  0xffffffffffffffffffffffffffffffffffffffff\n  and\n  mul\n  or\n  swap1\n  sstore\n  pop\n    /* \"CONTRACTS/Task_2.sol\":411:455  bytes32 public bytes32Value = \"Hello World!\" */\n  sstore(0x03, 0x48656c6c6f20576f726c64210000000000000000000000000000000000000000)\n    /* \"CONTRACTS/Task_2.sol\":461:512  uint256[5] public arrayUint5Value = [1, 2, 3, 4, 5] */\n  mload(0x40)\n  dup1\n  0xa0\n  add\n  0x40\n  mstore\n  dup1\n    /* \"CONTRACTS/Task_2.sol\":498:499  1 */\n  0x01\n    /* \"CONTRACTS/Task_2.sol\":461:512  uint256[5] public arrayUint5Value = [1, 2, 3, 4, 5] */\n  0xff\n  and\n  dup2\n  mstore\n  0x20\n  add\n    /* \"CONTRACTS/Task_2.sol\":501:502  2 */\n  0x02\n    /* \"CONTRACTS/Task_2.sol\":461:512  uint256[5] public arrayUint5Value = [1, 2, 3, 4, 5] */\n  0xff\n  and\n  dup2\n  mstore\n  0x20\n  add\n    /* \"CONTRACTS/Task_2.sol\":504:505  3 */\n  0x03\n    /* \"CONTRACTS/Task_2.sol\":461:512  uint256[5] public arrayUint5Value = [1, 2, 3, 4, 5] */\n  0xff\n  and\n  dup2\n  mstore\n  0x20\n  add\n    /* \"CONTRACTS/Task_2.sol\":507:508  4 */\n  0x04\n    /* \"CONTRACTS/Task_2.sol\":461:512  uint256[5] public arrayUint5Value = [1, 2, 3, 4, 5] */\n  0xff\n  and\n  dup2\n  mstore\n  0x20\n  add\n    /* \"CONTRACTS/Task_2.sol\":510:511  5 */\n  0x05\n    /* \"CONTRACTS/Task_2.sol\":461:512  uint256[5] public arrayUint5Value = [1, 2, 3, 4, 5] */\n  0xff\n  and\n  dup2\n  mstore\n  pop\n  0x04\n  swap1\n  0x05\n  tag_1\n  swap3\n  swap2\n  swap1\n  tag_2\n  jump\t// in\ntag_1:\n  pop\n    /* \"CONTRACTS/Task_2.sol\":566:567  5 */\n  0x05\n    /* \"CONTRACTS/Task_2.sol\":552:568  new uint256[](5) */\n  0xffffffffffffffff\n  dup2\n  gt\n  iszero\n  tag_3\n  jumpi\n  tag_4\n  tag_5\n  jump\t// in\ntag_4:\ntag_3:\n  mload(0x40)\n  swap1\n  dup1\n  dup3\n  mstore\n  dup1\n  0x20\n  mul\n  0x20\n  add\n  dup3\n  add\n  0x40\n  mstore\n  dup1\n  iszero\n  tag_6\n  jumpi\n  dup2\n  0x20\n  add\n  0x20\n  dup3\n  mul\n  dup1\n  calldatasize\n  dup4\n  calldatacopy\n  dup1\n  dup3\n  add\n  swap2\n  pop\n  pop\n  swap1\n  pop\ntag_6:\n  pop\n    /* \"CONTRACTS/Task_2.sol\":518:568  uint256[] public arrayUintValue = new uint256[](5) */\n  0x09\n  swap1\n  dup1\n  mload\n  swap1\n  0x20\n  add\n  swap1\n  tag_7\n  swap3\n  swap2\n  swap1\n  tag_8\n  jump\t// in\ntag_7:\n  pop\n    /* \"CONTRACTS/Task_2.sol\":574:616  string public stringValue = \"Hello World!\" */\n  mload(0x40)\n  dup1\n  0x40\n  add\n  0x40\n  mstore\n  dup1\n  0x0c\n  dup2\n  mstore\n  0x20\n  add\n  0x48656c6c6f20576f726c64210000000000000000000000000000000000000000\n  dup2\n  mstore\n  pop\n  0x0a\n  swap1\n  dup2\n  tag_9\n  swap2\n  swap1\n  tag_10\n  jump\t// in\ntag_9:\n  pop\n    /* \"CONTRACTS/Task_2.sol\":623:799  constructor() {... */\n  callvalue\n  dup1\n  iszero\n  tag_11\n  jumpi\n  0x00\n  dup1\n  revert\ntag_11:\n  pop\n    /* \"CONTRACTS/Task_2.sol\":667:668  1 */\n  0x01\n    /* \"CONTRACTS/Task_2.sol\":647:661  arrayUintValue */\n  0x09\n    /* \"CONTRACTS/Task_2.sol\":662:663  0 */\n  0x00\n    /* \"CONTRACTS/Task_2.sol\":647:664  arrayUintValue[0] */\n  dup2\n  sload\n  dup2\n  lt\n  tag_14\n  jumpi\n  tag_15\n  tag_16\n  jump\t// in\ntag_15:\ntag_14:\n  swap1\n  0x00\n  mstore\n  keccak256(0x00, 0x20)\n  add\n    /* \"CONTRACTS/Task_2.sol\":647:668  arrayUintValue[0] = 1 */\n  dup2\n  swap1\n  sstore\n  pop\n    /* \"CONTRACTS/Task_2.sol\":698:699  2 */\n  0x02\n    /* \"CONTRACTS/Task_2.sol\":678:692  arrayUintValue */\n  0x09\n    /* \"CONTRACTS/Task_2.sol\":693:694  1 */\n  0x01\n    /* \"CONTRACTS/Task_2.sol\":678:695  arrayUintValue[1] */\n  dup2\n  sload\n  dup2\n  lt\n  tag_18\n  jumpi\n  tag_19\n  tag_16\n  jump\t// in\ntag_19:\ntag_18:\n  swap1\n  0x00\n  mstore\n  keccak256(0x00, 0x20)\n  add\n    /* \"CONTRACTS/Task_2.sol\":678:699  arrayUintValue[1] = 2 */\n  dup2\n  swap1\n  sstore\n  pop\n    /* \"CONTRACTS/Task_2.sol\":729:730  3 */\n  0x03\n    /* \"CONTRACTS/Task_2.sol\":709:723  arrayUintValue */\n  0x09\n    /* \"CONTRACTS/Task_2.sol\":724:725  2 */\n  0x02\n    /* \"CONTRACTS/Task_2.sol\":709:726  arrayUintValue[2] */\n  dup2\n  sload\n  dup2\n  lt\n  tag_21\n  jumpi\n  tag_22\n  tag_16\n  jump\t// in\ntag_22:\ntag_21:\n  swap1\n  0x00\n  mstore\n  keccak256(0x00, 0x20)\n  add\n    /* \"CONTRACTS/Task_2.sol\":709:730  arrayUintValue[2] = 3 */\n  dup2\n  swap1\n  sstore\n  pop\n    /* \"CONTRACTS/Task_2.sol\":760:761  4 */\n  0x04\n    /* \"CONTRACTS/Task_2.sol\":740:754  arrayUintValue */\n  0x09\n    /* \"CONTRACTS/Task_2.sol\":755:756  3 */\n  0x03\n    /* \"CONTRACTS/Task_2.sol\":740:757  arrayUintValue[3] */\n  dup2\n  sload\n  dup2\n  lt\n  tag_24\n  jumpi\n  tag_25\n  tag_16\n  jump\t// in\ntag_25:\ntag_24:\n  swap1\n  0x00\n  mstore\n  keccak256(0x00, 0x20)\n  add\n    /* \"CONTRACTS/Task_2.sol\":740:761  arrayUintValue[3] = 4 */\n  dup2\n  swap1\n  sstore\n  pop\n    /* \"CONTRACTS/Task_2.sol\":791:792  5 */\n  0x05\n    /* \"CONTRACTS/Task_2.sol\":771:785  arrayUintValue */\n  0x09\n    /* \"CONTRACTS/Task_2.sol\":786:787  4 */\n  0x04\n    /* \"CONTRACTS/Task_2.sol\":771:788  arrayUintValue[4] */\n  dup2\n  sload\n  dup2\n  lt\n  tag_27\n  jumpi\n  tag_28\n  tag_16\n  jump\t// in\ntag_28:\ntag_27:\n  swap1\n  0x00\n  mstore\n  keccak256(0x00, 0x20)\n  add\n    /* \"CONTRACTS/Task_2.sol\":771:792  arrayUintValue[4] = 5 */\n  dup2\n  swap1\n  sstore\n  pop\n    /* \"CONTRACTS/Task_2.sol\":106:2072  contract DataTypesPractice is IDataTypesPractice {... */\n  jump(tag_30)\ntag_2:\n  dup3\n  0x05\n  dup2\n  add\n  swap3\n  dup3\n  iszero\n  tag_31\n  jumpi\n  swap2\n  0x20\n  mul\n  dup3\n  add\ntag_32:\n  dup3\n  dup2\n  gt\n  iszero\n  tag_33\n  jumpi\n  dup3\n  mload\n  dup3\n  swap1\n  0xff\n  and\n  swap1\n  sstore\n  swap2\n  0x20\n  add\n  swap2\n  swap1\n  0x01\n  add\n  swap1\n  jump(tag_32)\ntag_33:\ntag_31:\n  pop\n  swap1\n  pop\n  tag_34\n  swap2\n  swap1\n  tag_35\n  jump\t// in\ntag_34:\n  pop\n  swap1\n  jump\t// out\ntag_8:\n  dup3\n  dup1\n  sload\n  dup3\n  dup3\n  sstore\n  swap1\n  0x00\n  mstore\n  keccak256(0x00, 0x20)\n  swap1\n  dup2\n  add\n  swap3\n  dup3\n  iszero\n  tag_36\n  jumpi\n  swap2\n  0x20\n  mul\n  dup3\n  add\ntag_37:\n  dup3\n  dup2\n  gt\n  iszero\n  tag_38\n  jumpi\n  dup3\n  mload\n  dup3\n  sstore\n  swap2\n  0x20\n  add\n  swap2\n  swap1\n  0x01\n  add\n  swap1\n  jump(tag_37)\ntag_38:\ntag_36:\n  pop\n  swap1\n  pop\n  tag_39\n  swap2\n  swap1\n  tag_35\n  jump\t// in\ntag_39:\n  pop\n  swap1\n  jump\t// out\ntag_35:\ntag_40:\n  dup1\n  dup3\n  gt\n  iszero\n  tag_41\n  jumpi\n  0x00\n  dup2\n  0x00\n  swap1\n  sstore\n  pop\n  0x01\n  add\n  jump(tag_40)\ntag_41:\n  pop\n  swap1\n  jump\t// out\n    /* \"#utility.yul\":7:187   */\ntag_5:\n    /* \"#utility.yul\":55:132   */\n  0x4e487b7100000000000000000000000000000000000000000000000000000000\n    /* \"#utility.yul\":52:53   */\n  0x00\n    /* \"#utility.yul\":45:133   */\n  mstore\n    /* \"#utility.yul\":152:156   */\n  0x41\n    /* \"#utility.yul\":149:150   */\n  0x04\n    /* \"#utility.yul\":142:157   */\n  mstore\n    /* \"#utility.yul\":176:180   */\n  0x24\n    /* \"#utility.yul\":173:174   */\n  0x00\n    /* \"#utility.yul\":166:181   */\n  revert\n    /* \"#utility.yul\":193:292   */\ntag_42:\n    /* \"#utility.yul\":245:251   */\n  0x00\n    /* \"#utility.yul\":279:284   */\n  dup2\n    /* \"#utility.yul\":273:285   */\n  mload\n    /* \"#utility.yul\":263:285   */\n  swap1\n  pop\n    /* \"#utility.yul\":193:292   */\n  swap2\n  swap1\n  pop\n  jump\t// out\n    /* \"#utility.yul\":298:478   */\ntag_43:\n    /* \"#utility.yul\":346:423   */\n  0x4e487b7100000000000000000000000000000000000000000000000000000000\n    /* \"#utility.yul\":343:344   */\n  0x00\n    /* \"#utility.yul\":336:424   */\n  mstore\n    /* \"#utility.yul\":443:447   */\n  0x22\n    /* \"#utility.yul\":440:441   */\n  0x04\n    /* \"#utility.yul\":433:448   */\n  mstore\n    /* \"#utility.yul\":467:471   */\n  0x24\n    /* \"#utility.yul\":464:465   */\n  0x00\n    /* \"#utility.yul\":457:472   */\n  revert\n    /* \"#utility.yul\":484:804   */\ntag_44:\n    /* \"#utility.yul\":528:534   */\n  0x00\n    /* \"#utility.yul\":565:566   */\n  0x02\n    /* \"#utility.yul\":559:563   */\n  dup3\n    /* \"#utility.yul\":555:567   */\n  div\n    /* \"#utility.yul\":545:567   */\n  swap1\n  pop\n    /* \"#utility.yul\":612:613   */\n  0x01\n    /* \"#utility.yul\":606:610   */\n  dup3\n    /* \"#utility.yul\":602:614   */\n  and\n    /* \"#utility.yul\":633:651   */\n  dup1\n    /* \"#utility.yul\":623:704   */\n  tag_66\n  jumpi\n    /* \"#utility.yul\":689:693   */\n  0x7f\n    /* \"#utility.yul\":681:687   */\n  dup3\n    /* \"#utility.yul\":677:694   */\n  and\n    /* \"#utility.yul\":667:694   */\n  swap2\n  pop\n    /* \"#utility.yul\":623:704   */\ntag_66:\n    /* \"#utility.yul\":751:753   */\n  0x20\n    /* \"#utility.yul\":743:749   */\n  dup3\n    /* \"#utility.yul\":740:754   */\n  lt\n    /* \"#utility.yul\":720:738   */\n  dup2\n    /* \"#utility.yul\":717:755   */\n  sub\n    /* \"#utility.yul\":714:798   */\n  tag_67\n  jumpi\n    /* \"#utility.yul\":770:788   */\n  tag_68\n  tag_43\n  jump\t// in\ntag_68:\n    /* \"#utility.yul\":714:798   */\ntag_67:\n    /* \"#utility.yul\":535:804   */\n  pop\n    /* \"#utility.yul\":484:804   */\n  swap2\n  swap1\n  pop\n  jump\t// out\n    /* \"#utility.yul\":810:951   */\ntag_45:\n    /* \"#utility.yul\":859:863   */\n  0x00\n    /* \"#utility.yul\":882:885   */\n  dup2\n    /* \"#utility.yul\":874:885   */\n  swap1\n  pop\n    /* \"#utility.yul\":905:908   */\n  dup2\n    /* \"#utility.yul\":902:903   */\n  0x00\n    /* \"#utility.yul\":895:909   */\n  mstore\n    /* \"#utility.yul\":939:943   */\n  0x20\n    /* \"#utility.yul\":936:937   */\n  0x00\n    /* \"#utility.yul\":926:944   */\n  keccak256\n    /* \"#utility.yul\":918:944   */\n  swap1\n  pop\n    /* \"#utility.yul\":810:951   */\n  swap2\n  swap1\n  pop\n  jump\t// out\n    /* \"#utility.yul\":957:1050   */\ntag_46:\n    /* \"#utility.yul\":994:1000   */\n  0x00\n    /* \"#utility.yul\":1041:1043   */\n  0x20\n    /* \"#utility.yul\":1036:1038   */\n  0x1f\n    /* \"#utility.yul\":1029:1034   */\n  dup4\n    /* \"#utility.yul\":1025:1039   */\n  add\n    /* \"#utility.yul\":1021:1044   */\n  div\n    /* \"#utility.yul\":1011:1044   */\n  swap1\n  pop\n    /* \"#utility.yul\":957:1050   */\n  swap2\n  swap1\n  pop\n  jump\t// out\n    /* \"#utility.yul\":1056:1163   */\ntag_47:\n    /* \"#utility.yul\":1100:1108   */\n  0x00\n    /* \"#utility.yul\":1150:1155   */\n  dup3\n    /* \"#utility.yul\":1144:1148   */\n  dup3\n    /* \"#utility.yul\":1140:1156   */\n  shl\n    /* \"#utility.yul\":1119:1156   */\n  swap1\n  pop\n    /* \"#utility.yul\":1056:1163   */\n  swap3\n  swap2\n  pop\n  pop\n  jump\t// out\n    /* \"#utility.yul\":1169:1562   */\ntag_48:\n    /* \"#utility.yul\":1238:1244   */\n  0x00\n    /* \"#utility.yul\":1288:1289   */\n  0x08\n    /* \"#utility.yul\":1276:1286   */\n  dup4\n    /* \"#utility.yul\":1272:1290   */\n  mul\n    /* \"#utility.yul\":1311:1408   */\n  tag_73\n    /* \"#utility.yul\":1341:1407   */\n  0xffffffffffffffffffffffffffffffffffffffffffffffffffffffffffffffff\n    /* \"#utility.yul\":1330:1339   */\n  dup3\n    /* \"#utility.yul\":1311:1408   */\n  tag_47\n  jump\t// in\ntag_73:\n    /* \"#utility.yul\":1429:1468   */\n  tag_74\n    /* \"#utility.yul\":1459:1467   */\n  dup7\n    /* \"#utility.yul\":1448:1457   */\n  dup4\n    /* \"#utility.yul\":1429:1468   */\n  tag_47\n  jump\t// in\ntag_74:\n    /* \"#utility.yul\":1417:1468   */\n  swap6\n  pop\n    /* \"#utility.yul\":1501:1505   */\n  dup1\n    /* \"#utility.yul\":1497:1506   */\n  not\n    /* \"#utility.yul\":1490:1495   */\n  dup5\n    /* \"#utility.yul\":1486:1507   */\n  and\n    /* \"#utility.yul\":1477:1507   */\n  swap4\n  pop\n    /* \"#utility.yul\":1550:1554   */\n  dup1\n    /* \"#utility.yul\":1540:1548   */\n  dup7\n    /* \"#utility.yul\":1536:1555   */\n  and\n    /* \"#utility.yul\":1529:1534   */\n  dup5\n    /* \"#utility.yul\":1526:1556   */\n  or\n    /* \"#utility.yul\":1516:1556   */\n  swap3\n  pop\n    /* \"#utility.yul\":1245:1562   */\n  pop\n  pop\n    /* \"#utility.yul\":1169:1562   */\n  swap4\n  swap3\n  pop\n  pop\n  pop\n  jump\t// out\n    /* \"#utility.yul\":1568:1645   */\ntag_49:\n    /* \"#utility.yul\":1605:1612   */\n  0x00\n    /* \"#utility.yul\":1634:1639   */\n  dup2\n    /* \"#utility.yul\":1623:1639   */\n  swap1\n  pop\n    /* \"#utility.yul\":1568:1645   */\n  swap2\n  swap1\n  pop\n  jump\t// out\n    /* \"#utility.yul\":1651:1711   */\ntag_50:\n    /* \"#utility.yul\":1679:1682   */\n  0x00\n    /* \"#utility.yul\":1700:1705   */\n  dup2\n    /* \"#utility.yul\":1693:1705   */\n  swap1\n  pop\n    /* \"#utility.yul\":1651:1711   */\n  swap2\n  swap1\n  pop\n  jump\t// out\n    /* \"#utility.yul\":1717:1859   */\ntag_51:\n    /* \"#utility.yul\":1767:1776   */\n  0x00\n    /* \"#utility.yul\":1800:1853   */\n  tag_78\n    /* \"#utility.yul\":1818:1852   */\n  tag_79\n    /* \"#utility.yul\":1827:1851   */\n  tag_80\n    /* \"#utility.yul\":1845:1850   */\n  dup5\n    /* \"#utility.yul\":1827:1851   */\n  tag_49\n  jump\t// in\ntag_80:\n    /* \"#utility.yul\":1818:1852   */\n  tag_50\n  jump\t// in\ntag_79:\n    /* \"#utility.yul\":1800:1853   */\n  tag_49\n  jump\t// in\ntag_78:\n    /* \"#utility.yul\":1787:1853   */\n  swap1\n  pop\n    /* \"#utility.yul\":1717:1859   */\n  swap2\n  swap1\n  pop\n  jump\t// out\n    /* \"#utility.yul\":1865:1940   */\ntag_52:\n    /* \"#utility.yul\":1908:1911   */\n  0x00\n    /* \"#utility.yul\":1929:1934   */\n  dup2\n    /* \"#utility.yul\":1922:1934   */\n  swap1\n  pop\n    /* \"#utility.yul\":1865:1940   */\n  swap2\n  swap1\n  pop\n  jump\t// out\n    /* \"#utility.yul\":1946:2215   */\ntag_53:\n    /* \"#utility.yul\":2056:2095   */\n  tag_83\n    /* \"#utility.yul\":2087:2094   */\n  dup4\n    /* \"#utility.yul\":2056:2095   */\n  tag_51\n  jump\t// in\ntag_83:\n    /* \"#utility.yul\":2117:2208   */\n  tag_84\n    /* \"#utility.yul\":2166:2207   */\n  tag_85\n    /* \"#utility.yul\":2190:2206   */\n  dup3\n    /* \"#utility.yul\":2166:2207   */\n  tag_52\n  jump\t// in\ntag_85:\n    /* \"#utility.yul\":2158:2164   */\n  dup5\n    /* \"#utility.yul\":2151:2155   */\n  dup5\n    /* \"#utility.yul\":2145:2156   */\n  sload\n    /* \"#utility.yul\":2117:2208   */\n  tag_48\n  jump\t// in\ntag_84:\n    /* \"#utility.yul\":2111:2115   */\n  dup3\n    /* \"#utility.yul\":2104:2209   */\n  sstore\n    /* \"#utility.yul\":2022:2215   */\n  pop\n    /* \"#utility.yul\":1946:2215   */\n  pop\n  pop\n  pop\n  jump\t// out\n    /* \"#utility.yul\":2221:2294   */\ntag_54:\n    /* \"#utility.yul\":2266:2269   */\n  0x00\n    /* \"#utility.yul\":2221:2294   */\n  swap1\n  jump\t// out\n    /* \"#utility.yul\":2300:2489   */\ntag_55:\n    /* \"#utility.yul\":2377:2409   */\n  tag_88\n  tag_54\n  jump\t// in\ntag_88:\n    /* \"#utility.yul\":2418:2483   */\n  tag_89\n    /* \"#utility.yul\":2476:2482   */\n  dup2\n    /* \"#utility.yul\":2468:2474   */\n  dup5\n    /* \"#utility.yul\":2462:2466   */\n  dup5\n    /* \"#utility.yul\":2418:2483   */\n  tag_53\n  jump\t// in\ntag_89:\n    /* \"#utility.yul\":2353:2489   */\n  pop\n    /* \"#utility.yul\":2300:2489   */\n  pop\n  pop\n  jump\t// out\n    /* \"#utility.yul\":2495:2681   */\ntag_56:\n    /* \"#utility.yul\":2555:2675   */\ntag_91:\n    /* \"#utility.yul\":2572:2575   */\n  dup2\n    /* \"#utility.yul\":2565:2570   */\n  dup2\n    /* \"#utility.yul\":2562:2576   */\n  lt\n    /* \"#utility.yul\":2555:2675   */\n  iszero\n  tag_93\n  jumpi\n    /* \"#utility.yul\":2626:2665   */\n  tag_94\n    /* \"#utility.yul\":2663:2664   */\n  0x00\n    /* \"#utility.yul\":2656:2661   */\n  dup3\n    /* \"#utility.yul\":2626:2665   */\n  tag_55\n  jump\t// in\ntag_94:\n    /* \"#utility.yul\":2599:2600   */\n  0x01\n    /* \"#utility.yul\":2592:2597   */\n  dup2\n    /* \"#utility.yul\":2588:2601   */\n  add\n    /* \"#utility.yul\":2579:2601   */\n  swap1\n  pop\n    /* \"#utility.yul\":2555:2675   */\n  jump(tag_91)\ntag_93:\n    /* \"#utility.yul\":2495:2681   */\n  pop\n  pop\n  jump\t// out\n    /* \"#utility.yul\":2687:3230   */\ntag_57:\n    /* \"#utility.yul\":2788:2790   */\n  0x1f\n    /* \"#utility.yul\":2783:2786   */\n  dup3\n    /* \"#utility.yul\":2780:2791   */\n  gt\n    /* \"#utility.yul\":2777:3223   */\n  iszero\n  tag_96\n  jumpi\n    /* \"#utility.yul\":2822:2860   */\n  tag_97\n    /* \"#utility.yul\":2854:2859   */\n  dup2\n    /* \"#utility.yul\":2822:2860   */\n  tag_45\n  jump\t// in\ntag_97:\n    /* \"#utility.yul\":2906:2935   */\n  tag_98\n    /* \"#utility.yul\":2924:2934   */\n  dup5\n    /* \"#utility.yul\":2906:2935   */\n  tag_46\n  jump\t// in\ntag_98:\n    /* \"#utility.yul\":2896:2904   */\n  dup2\n    /* \"#utility.yul\":2892:2936   */\n  add\n    /* \"#utility.yul\":3089:3091   */\n  0x20\n    /* \"#utility.yul\":3077:3087   */\n  dup6\n    /* \"#utility.yul\":3074:3092   */\n  lt\n    /* \"#utility.yul\":3071:3120   */\n  iszero\n  tag_99\n  jumpi\n    /* \"#utility.yul\":3110:3118   */\n  dup2\n    /* \"#utility.yul\":3095:3118   */\n  swap1\n  pop\n    /* \"#utility.yul\":3071:3120   */\ntag_99:\n    /* \"#utility.yul\":3133:3213   */\n  tag_100\n    /* \"#utility.yul\":3189:3211   */\n  tag_101\n    /* \"#utility.yul\":3207:3210   */\n  dup6\n    /* \"#utility.yul\":3189:3211   */\n  tag_46\n  jump\t// in\ntag_101:\n    /* \"#utility.yul\":3179:3187   */\n  dup4\n    /* \"#utility.yul\":3175:3212   */\n  add\n    /* \"#utility.yul\":3162:3173   */\n  dup3\n    /* \"#utility.yul\":3133:3213   */\n  tag_56\n  jump\t// in\ntag_100:\n    /* \"#utility.yul\":2792:3223   */\n  pop\n  pop\n    /* \"#utility.yul\":2777:3223   */\ntag_96:\n    /* \"#utility.yul\":2687:3230   */\n  pop\n  pop\n  pop\n  jump\t// out\n    /* \"#utility.yul\":3236:3353   */\ntag_58:\n    /* \"#utility.yul\":3290:3298   */\n  0x00\n    /* \"#utility.yul\":3340:3345   */\n  dup3\n    /* \"#utility.yul\":3334:3338   */\n  dup3\n    /* \"#utility.yul\":3330:3346   */\n  shr\n    /* \"#utility.yul\":3309:3346   */\n  swap1\n  pop\n    /* \"#utility.yul\":3236:3353   */\n  swap3\n  swap2\n  pop\n  pop\n  jump\t// out\n    /* \"#utility.yul\":3359:3528   */\ntag_59:\n    /* \"#utility.yul\":3403:3409   */\n  0x00\n    /* \"#utility.yul\":3436:3487   */\n  tag_104\n    /* \"#utility.yul\":3484:3485   */\n  0x00\n    /* \"#utility.yul\":3480:3486   */\n  not\n    /* \"#utility.yul\":3472:3477   */\n  dup5\n    /* \"#utility.yul\":3469:3470   */\n  0x08\n    /* \"#utility.yul\":3465:3478   */\n  mul\n    /* \"#utility.yul\":3436:3487   */\n  tag_58\n  jump\t// in\ntag_104:\n    /* \"#utility.yul\":3432:3488   */\n  not\n    /* \"#utility.yul\":3517:3521   */\n  dup1\n    /* \"#utility.yul\":3511:3515   */\n  dup4\n    /* \"#utility.yul\":3507:3522   */\n  and\n    /* \"#utility.yul\":3497:3522   */\n  swap2\n  pop\n    /* \"#utility.yul\":3410:3528   */\n  pop\n    /* \"#utility.yul\":3359:3528   */\n  swap3\n  swap2\n  pop\n  pop\n  jump\t// out\n    /* \"#utility.yul\":3533:3828   */\ntag_60:\n    /* \"#utility.yul\":3609:3613   */\n  0x00\n    /* \"#utility.yul\":3755:3784   */\n  tag_106\n    /* \"#utility.yul\":3780:3783   */\n  dup4\n    /* \"#utility.yul\":3774:3778   */\n  dup4\n    /* \"#utility.yul\":3755:3784   */\n  tag_59\n  jump\t// in\ntag_106:\n    /* \"#utility.yul\":3747:3784   */\n  swap2\n  pop\n    /* \"#utility.yul\":3817:3820   */\n  dup3\n    /* \"#utility.yul\":3814:3815   */\n  0x02\n    /* \"#utility.yul\":3810:3821   */\n  mul\n    /* \"#utility.yul\":3804:3808   */\n  dup3\n    /* \"#utility.yul\":3801:3822   */\n  or\n    /* \"#utility.yul\":3793:3822   */\n  swap1\n  pop\n    /* \"#utility.yul\":3533:3828   */\n  swap3\n  swap2\n  pop\n  pop\n  jump\t// out\n    /* \"#utility.yul\":3833:5228   */\ntag_10:\n    /* \"#utility.yul\":3950:3987   */\n  tag_108\n    /* \"#utility.yul\":3983:3986   */\n  dup3\n    /* \"#utility.yul\":3950:3987   */\n  tag_42\n  jump\t// in\ntag_108:\n    /* \"#utility.yul\":4052:4070   */\n  0xffffffffffffffff\n    /* \"#utility.yul\":4044:4050   */\n  dup2\n    /* \"#utility.yul\":4041:4071   */\n  gt\n    /* \"#utility.yul\":4038:4094   */\n  iszero\n  tag_109\n  jumpi\n    /* \"#utility.yul\":4074:4092   */\n  tag_110\n  tag_5\n  jump\t// in\ntag_110:\n    /* \"#utility.yul\":4038:4094   */\ntag_109:\n    /* \"#utility.yul\":4118:4156   */\n  tag_111\n    /* \"#utility.yul\":4150:4154   */\n  dup3\n    /* \"#utility.yul\":4144:4155   */\n  sload\n    /* \"#utility.yul\":4118:4156   */\n  tag_44\n  jump\t// in\ntag_111:\n    /* \"#utility.yul\":4203:4270   */\n  tag_112\n    /* \"#utility.yul\":4263:4269   */\n  dup3\n    /* \"#utility.yul\":4255:4261   */\n  dup3\n    /* \"#utility.yul\":4249:4253   */\n  dup6\n    /* \"#utility.yul\":4203:4270   */\n  tag_57\n  jump\t// in\ntag_112:\n    /* \"#utility.yul\":4297:4298   */\n  0x00\n    /* \"#utility.yul\":4321:4325   */\n  0x20\n    /* \"#utility.yul\":4308:4325   */\n  swap1\n  pop\n    /* \"#utility.yul\":4353:4355   */\n  0x1f\n    /* \"#utility.yul\":4345:4351   */\n  dup4\n    /* \"#utility.yul\":4342:4356   */\n  gt\n    /* \"#utility.yul\":4370:4371   */\n  0x01\n    /* \"#utility.yul\":4365:4983   */\n  dup2\n  eq\n  tag_114\n  jumpi\n    /* \"#utility.yul\":5027:5028   */\n  0x00\n    /* \"#utility.yul\":5044:5050   */\n  dup5\n    /* \"#utility.yul\":5041:5118   */\n  iszero\n  tag_115\n  jumpi\n    /* \"#utility.yul\":5093:5102   */\n  dup3\n    /* \"#utility.yul\":5088:5091   */\n  dup8\n    /* \"#utility.yul\":5084:5103   */\n  add\n    /* \"#utility.yul\":5078:5104   */\n  mload\n    /* \"#utility.yul\":5069:5104   */\n  swap1\n  pop\n    /* \"#utility.yul\":5041:5118   */\ntag_115:\n    /* \"#utility.yul\":5144:5211   */\n  tag_116\n    /* \"#utility.yul\":5204:5210   */\n  dup6\n    /* \"#utility.yul\":5197:5202   */\n  dup3\n    /* \"#utility.yul\":5144:5211   */\n  tag_60\n  jump\t// in\ntag_116:\n    /* \"#utility.yul\":5138:5142   */\n  dup7\n    /* \"#utility.yul\":5131:5212   */\n  sstore\n    /* \"#utility.yul\":5000:5222   */\n  pop\n    /* \"#utility.yul\":4335:5222   */\n  jump(tag_113)\n    /* \"#utility.yul\":4365:4983   */\ntag_114:\n    /* \"#utility.yul\":4417:4421   */\n  0x1f\n    /* \"#utility.yul\":4413:4422   */\n  not\n    /* \"#utility.yul\":4405:4411   */\n  dup5\n    /* \"#utility.yul\":4401:4423   */\n  and\n    /* \"#utility.yul\":4451:4488   */\n  tag_117\n    /* \"#utility.yul\":4483:4487   */\n  dup7\n    /* \"#utility.yul\":4451:4488   */\n  tag_45\n  jump\t// in\ntag_117:\n    /* \"#utility.yul\":4510:4511   */\n  0x00\n    /* \"#utility.yul\":4524:4732   */\ntag_118:\n    /* \"#utility.yul\":4538:4545   */\n  dup3\n    /* \"#utility.yul\":4535:4536   */\n  dup2\n    /* \"#utility.yul\":4532:4546   */\n  lt\n    /* \"#utility.yul\":4524:4732   */\n  iszero\n  tag_120\n  jumpi\n    /* \"#utility.yul\":4617:4626   */\n  dup5\n    /* \"#utility.yul\":4612:4615   */\n  dup10\n    /* \"#utility.yul\":4608:4627   */\n  add\n    /* \"#utility.yul\":4602:4628   */\n  mload\n    /* \"#utility.yul\":4594:4600   */\n  dup3\n    /* \"#utility.yul\":4587:4629   */\n  sstore\n    /* \"#utility.yul\":4668:4669   */\n  0x01\n    /* \"#utility.yul\":4660:4666   */\n  dup3\n    /* \"#utility.yul\":4656:4670   */\n  add\n    /* \"#utility.yul\":4646:4670   */\n  swap2\n  pop\n    /* \"#utility.yul\":4715:4717   */\n  0x20\n    /* \"#utility.yul\":4704:4713   */\n  dup6\n    /* \"#utility.yul\":4700:4718   */\n  add\n    /* \"#utility.yul\":4687:4718   */\n  swap5\n  pop\n    /* \"#utility.yul\":4561:4565   */\n  0x20\n    /* \"#utility.yul\":4558:4559   */\n  dup2\n    /* \"#utility.yul\":4554:4566   */\n  add\n    /* \"#utility.yul\":4549:4566   */\n  swap1\n  pop\n    /* \"#utility.yul\":4524:4732   */\n  jump(tag_118)\ntag_120:\n    /* \"#utility.yul\":4760:4766   */\n  dup7\n    /* \"#utility.yul\":4751:4758   */\n  dup4\n    /* \"#utility.yul\":4748:4767   */\n  lt\n    /* \"#utility.yul\":4745:4924   */\n  iszero\n  tag_121\n  jumpi\n    /* \"#utility.yul\":4818:4827   */\n  dup5\n    /* \"#utility.yul\":4813:4816   */\n  dup10\n    /* \"#utility.yul\":4809:4828   */\n  add\n    /* \"#utility.yul\":4803:4829   */\n  mload\n    /* \"#utility.yul\":4861:4909   */\n  tag_122\n    /* \"#utility.yul\":4903:4907   */\n  0x1f\n    /* \"#utility.yul\":4895:4901   */\n  dup10\n    /* \"#utility.yul\":4891:4908   */\n  and\n    /* \"#utility.yul\":4880:4889   */\n  dup3\n    /* \"#utility.yul\":4861:4909   */\n  tag_59\n  jump\t// in\ntag_122:\n    /* \"#utility.yul\":4853:4859   */\n  dup4\n    /* \"#utility.yul\":4846:4910   */\n  sstore\n    /* \"#utility.yul\":4768:4924   */\n  pop\n    /* \"#utility.yul\":4745:4924   */\ntag_121:\n    /* \"#utility.yul\":4970:4971   */\n  0x01\n    /* \"#utility.yul\":4966:4967   */\n  0x02\n    /* \"#utility.yul\":4958:4964   */\n  dup9\n    /* \"#utility.yul\":4954:4968   */\n  mul\n    /* \"#utility.yul\":4950:4972   */\n  add\n    /* \"#utility.yul\":4944:4948   */\n  dup9\n    /* \"#utility.yul\":4937:4973   */\n  sstore\n    /* \"#utility.yul\":4372:4983   */\n  pop\n  pop\n  pop\n    /* \"#utility.yul\":4335:5222   */\ntag_113:\n  pop\n    /* \"#utility.yul\":3925:5228   */\n  pop\n  pop\n  pop\n    /* \"#utility.yul\":3833:5228   */\n  pop\n  pop\n  jump\t// out\n    /* \"#utility.yul\":5234:5414   */\ntag_16:\n    /* \"#utility.yul\":5282:5359   */\n  0x4e487b7100000000000000000000000000000000000000000000000000000000\n    /* \"#utility.yul\":5279:5280   */\n  0x00\n    /* \"#utility.yul\":5272:5360   */\n  mstore\n    /* \"#utility.yul\":5379:5383   */\n  0x32\n    /* \"#utility.yul\":5376:5377   */\n  0x04\n    /* \"#utility.yul\":5369:5384   */\n  mstore\n    /* \"#utility.yul\":5403:5407   */\n  0x24\n    /* \"#utility.yul\":5400:5401   */\n  0x00\n    /* \"#utility.yul\":5393:5408   */\n  revert\n    /* \"CONTRACTS/Task_2.sol\":106:2072  contract DataTypesPractice is IDataTypesPractice {... */\ntag_30:\n  dataSize(sub_0)\n  dup1\n  dataOffset(sub_0)\n  0x00\n  codecopy\n  0x00\n  return\nstop\n\nsub_0: assembly {\n        /* \"CONTRACTS/Task_2.sol\":106:2072  contract DataTypesPractice is IDataTypesPractice {... */\n      mstore(0x40, 0x80)\n      callvalue\n      dup1\n      iszero\n      tag_1\n      jumpi\n      0x00\n      dup1\n      revert\n    tag_1:\n      pop\n      jumpi(tag_2, lt(calldatasize, 0x04))\n      shr(0xe0, calldataload(0x00))\n      dup1\n      0x7dc93929\n      gt\n      tag_24\n      jumpi\n      dup1\n      0x93af578d\n      gt\n      tag_25\n      jumpi\n      dup1\n      0x93af578d\n      eq\n      tag_18\n      jumpi\n      dup1\n      0x958be696\n      eq\n      tag_19\n      jumpi\n      dup1\n      0xaaef20ea\n      eq\n      tag_20\n      jumpi\n      dup1\n      0xc41b5530\n      eq\n      tag_21\n      jumpi\n      dup1\n      0xe1d16b83\n      eq\n      tag_22\n      jumpi\n      dup1\n      0xf5b53e17\n      eq\n      tag_23\n      jumpi\n      jump(tag_2)\n    tag_25:\n      dup1\n      0x7dc93929\n      eq\n      tag_13\n      jumpi\n      dup1\n      0x86049598\n      eq\n      tag_14\n      jumpi\n      dup1\n      0x87a26673\n      eq\n      tag_15\n      jumpi\n      dup1\n      0x89ea642f\n      eq\n      tag_16\n      jumpi\n      dup1\n      0x9032f58c\n      eq\n      tag_17\n      jumpi\n      jump(tag_2)\n    tag_24:\n      dup1\n      0x454ef146\n      gt\n      tag_26\n      jumpi\n      dup1\n      0x454ef146\n      eq\n      tag_8\n      jumpi\n      dup1\n      0x57cb2fc4\n      eq\n      tag_9\n      jumpi\n      dup1\n      0x6498db88\n      eq\n      tag_10\n      jumpi\n      dup1\n      0x68895979\n      eq\n      tag_11\n      jumpi\n      dup1\n      0x6baaa2e4\n      eq\n      tag_12\n      jumpi\n      jump(tag_2)\n    tag_26:\n      dup1\n      0x12a7b914\n      eq\n      tag_3\n      jumpi\n      dup1\n      0x1f903037\n      eq\n      tag_4\n      jumpi\n      dup1\n      0x343a875d\n      eq\n      tag_5\n      jumpi\n      dup1\n      0x355ef27d\n      eq\n      tag_6\n      jumpi\n      dup1\n      0x38cc4831\n      eq\n      tag_7\n      jumpi\n    tag_2:\n      0x00\n      dup1\n      revert\n        /* \"CONTRACTS/Task_2.sol\":1207:1297  function getBool() external view override returns (bool) {... */\n    tag_3:\n      tag_27\n      tag_28\n      jump\t// in\n    tag_27:\n      mload(0x40)\n      tag_29\n      swap2\n      swap1\n      tag_30\n      jump\t// in\n    tag_29:\n      mload(0x40)\n      dup1\n      swap2\n      sub\n      swap1\n      return\n        /* \"CONTRACTS/Task_2.sol\":1408:1507  function getBytes32() external view override returns (bytes32) {... */\n    tag_4:\n      tag_31\n      tag_32\n      jump\t// in\n    tag_31:\n      mload(0x40)\n      tag_33\n      swap2\n      swap1\n      tag_34\n      jump\t// in\n    tag_33:\n      mload(0x40)\n      dup1\n      swap2\n      sub\n      swap1\n      return\n        /* \"CONTRACTS/Task_2.sol\":1108:1201  function getUint8() external view override returns (uint8) {... */\n    tag_5:\n      tag_35\n      tag_36\n      jump\t// in\n    tag_35:\n      mload(0x40)\n      tag_37\n      swap2\n      swap1\n      tag_38\n      jump\t// in\n    tag_37:\n      mload(0x40)\n      dup1\n      swap2\n      sub\n      swap1\n      return\n        /* \"CONTRACTS/Task_2.sol\":461:512  uint256[5] public arrayUint5Value = [1, 2, 3, 4, 5] */\n    tag_6:\n      tag_39\n      0x04\n      dup1\n      calldatasize\n      sub\n      dup2\n      add\n      swap1\n      tag_40\n      swap2\n      swap1\n      tag_41\n      jump\t// in\n    tag_40:\n      tag_42\n      jump\t// in\n    tag_39:\n      mload(0x40)\n      tag_43\n      swap2\n      swap1\n      tag_44\n      jump\t// in\n    tag_43:\n      mload(0x40)\n      dup1\n      swap2\n      sub\n      swap1\n      return\n        /* \"CONTRACTS/Task_2.sol\":1303:1402  function getAddress() external view override returns (address) {... */\n    tag_7:\n      tag_45\n      tag_46\n      jump\t// in\n    tag_45:\n      mload(0x40)\n      tag_47\n      swap2\n      swap1\n      tag_48\n      jump\t// in\n    tag_47:\n      mload(0x40)\n      dup1\n      swap2\n      sub\n      swap1\n      return\n        /* \"CONTRACTS/Task_2.sol\":234:260  int8 public int8Value = -1 */\n    tag_8:\n      tag_49\n      tag_50\n      jump\t// in\n    tag_49:\n      mload(0x40)\n      tag_51\n      swap2\n      swap1\n      tag_52\n      jump\t// in\n    tag_51:\n      mload(0x40)\n      dup1\n      swap2\n      sub\n      swap1\n      return\n        /* \"CONTRACTS/Task_2.sol\":1012:1102  function getInt8() external view override returns (int8) {... */\n    tag_9:\n      tag_53\n      tag_54\n      jump\t// in\n    tag_53:\n      mload(0x40)\n      tag_55\n      swap2\n      swap1\n      tag_52\n      jump\t// in\n    tag_55:\n      mload(0x40)\n      dup1\n      swap2\n      sub\n      swap1\n      return\n        /* \"CONTRACTS/Task_2.sol\":197:228  uint256 public uint256Value = 1 */\n    tag_10:\n      tag_56\n      tag_57\n      jump\t// in\n    tag_56:\n      mload(0x40)\n      tag_58\n      swap2\n      swap1\n      tag_44\n      jump\t// in\n    tag_58:\n      mload(0x40)\n      dup1\n      swap2\n      sub\n      swap1\n      return\n        /* \"CONTRACTS/Task_2.sol\":907:1006  function getUint256() external view override returns (uint256) {... */\n    tag_11:\n      tag_59\n      tag_60\n      jump\t// in\n    tag_59:\n      mload(0x40)\n      tag_61\n      swap2\n      swap1\n      tag_44\n      jump\t// in\n    tag_61:\n      mload(0x40)\n      dup1\n      swap2\n      sub\n      swap1\n      return\n        /* \"CONTRACTS/Task_2.sol\":411:455  bytes32 public bytes32Value = \"Hello World!\" */\n    tag_12:\n      tag_62\n      tag_63\n      jump\t// in\n    tag_62:\n      mload(0x40)\n      tag_64\n      swap2\n      swap1\n      tag_34\n      jump\t// in\n    tag_64:\n      mload(0x40)\n      dup1\n      swap2\n      sub\n      swap1\n      return\n        /* \"CONTRACTS/Task_2.sol\":574:616  string public stringValue = \"Hello World!\" */\n    tag_13:\n      tag_65\n      tag_66\n      jump\t// in\n    tag_65:\n      mload(0x40)\n      tag_67\n      swap2\n      swap1\n      tag_68\n      jump\t// in\n    tag_67:\n      mload(0x40)\n      dup1\n      swap2\n      sub\n      swap1\n      return\n        /* \"CONTRACTS/Task_2.sol\":518:568  uint256[] public arrayUintValue = new uint256[](5) */\n    tag_14:\n      tag_69\n      0x04\n      dup1\n      calldatasize\n      sub\n      dup2\n      add\n      swap1\n      tag_70\n      swap2\n      swap1\n      tag_41\n      jump\t// in\n    tag_70:\n      tag_71\n      jump\t// in\n    tag_69:\n      mload(0x40)\n      tag_72\n      swap2\n      swap1\n      tag_44\n      jump\t// in\n    tag_72:\n      mload(0x40)\n      dup1\n      swap2\n      sub\n      swap1\n      return\n        /* \"CONTRACTS/Task_2.sol\":161:191  int256 public int256Value = -1 */\n    tag_15:\n      tag_73\n      tag_74\n      jump\t// in\n    tag_73:\n      mload(0x40)\n      tag_75\n      swap2\n      swap1\n      tag_76\n      jump\t// in\n    tag_75:\n      mload(0x40)\n      dup1\n      swap2\n      sub\n      swap1\n      return\n        /* \"CONTRACTS/Task_2.sol\":1752:1855  function getString() external view override returns (string memory) {... */\n    tag_16:\n      tag_77\n      tag_78\n      jump\t// in\n    tag_77:\n      mload(0x40)\n      tag_79\n      swap2\n      swap1\n      tag_68\n      jump\t// in\n    tag_79:\n      mload(0x40)\n      dup1\n      swap2\n      sub\n      swap1\n      return\n        /* \"CONTRACTS/Task_2.sol\":1513:1628  function getArrayUint5() external view override returns (uint256[5] memory) {... */\n    tag_17:\n      tag_80\n      tag_81\n      jump\t// in\n    tag_80:\n      mload(0x40)\n      tag_82\n      swap2\n      swap1\n      tag_83\n      jump\t// in\n    tag_82:\n      mload(0x40)\n      dup1\n      swap2\n      sub\n      swap1\n      return\n        /* \"CONTRACTS/Task_2.sol\":299:327  bool public boolValue = true */\n    tag_18:\n      tag_84\n      tag_85\n      jump\t// in\n    tag_84:\n      mload(0x40)\n      tag_86\n      swap2\n      swap1\n      tag_30\n      jump\t// in\n    tag_86:\n      mload(0x40)\n      dup1\n      swap2\n      sub\n      swap1\n      return\n        /* \"CONTRACTS/Task_2.sol\":1861:2070  function getBigUint() external pure override returns (uint256) {... */\n    tag_19:\n      tag_87\n      tag_88\n      jump\t// in\n    tag_87:\n      mload(0x40)\n      tag_89\n      swap2\n      swap1\n      tag_44\n      jump\t// in\n    tag_89:\n      mload(0x40)\n      dup1\n      swap2\n      sub\n      swap1\n      return\n        /* \"CONTRACTS/Task_2.sol\":266:293  uint8 public uint8Value = 1 */\n    tag_20:\n      tag_90\n      tag_91\n      jump\t// in\n    tag_90:\n      mload(0x40)\n      tag_92\n      swap2\n      swap1\n      tag_38\n      jump\t// in\n    tag_92:\n      mload(0x40)\n      dup1\n      swap2\n      sub\n      swap1\n      return\n        /* \"CONTRACTS/Task_2.sol\":1634:1746  function getArrayUint() external view override returns (uint256[] memory) {... */\n    tag_21:\n      tag_93\n      tag_94\n      jump\t// in\n    tag_93:\n      mload(0x40)\n      tag_95\n      swap2\n      swap1\n      tag_96\n      jump\t// in\n    tag_95:\n      mload(0x40)\n      dup1\n      swap2\n      sub\n      swap1\n      return\n        /* \"CONTRACTS/Task_2.sol\":333:405  address public addressValue = 0xdCad3a6d3569DF655070DEd06cb7A1b2Ccd1D3AF */\n    tag_22:\n      tag_97\n      tag_98\n      jump\t// in\n    tag_97:\n      mload(0x40)\n      tag_99\n      swap2\n      swap1\n      tag_48\n      jump\t// in\n    tag_99:\n      mload(0x40)\n      dup1\n      swap2\n      sub\n      swap1\n      return\n        /* \"CONTRACTS/Task_2.sol\":805:901  function getInt256() external view override returns (int256) {... */\n    tag_23:\n      tag_100\n      tag_101\n      jump\t// in\n    tag_100:\n      mload(0x40)\n      tag_102\n      swap2\n      swap1\n      tag_76\n      jump\t// in\n    tag_102:\n      mload(0x40)\n      dup1\n      swap2\n      sub\n      swap1\n      return\n        /* \"CONTRACTS/Task_2.sol\":1207:1297  function getBool() external view override returns (bool) {... */\n    tag_28:\n        /* \"CONTRACTS/Task_2.sol\":1258:1262  bool */\n      0x00\n        /* \"CONTRACTS/Task_2.sol\":1281:1290  boolValue */\n      0x02\n      dup1\n      sload\n      swap1\n      0x0100\n      exp\n      swap1\n      div\n      0xff\n      and\n        /* \"CONTRACTS/Task_2.sol\":1274:1290  return boolValue */\n      swap1\n      pop\n        /* \"CONTRACTS/Task_2.sol\":1207:1297  function getBool() external view override returns (bool) {... */\n      swap1\n      jump\t// out\n        /* \"CONTRACTS/Task_2.sol\":1408:1507  function getBytes32() external view override returns (bytes32) {... */\n    tag_32:\n        /* \"CONTRACTS/Task_2.sol\":1462:1469  bytes32 */\n      0x00\n        /* \"CONTRACTS/Task_2.sol\":1488:1500  bytes32Value */\n      sload(0x03)\n        /* \"CONTRACTS/Task_2.sol\":1481:1500  return bytes32Value */\n      swap1\n      pop\n        /* \"CONTRACTS/Task_2.sol\":1408:1507  function getBytes32() external view override returns (bytes32) {... */\n      swap1\n      jump\t// out\n        /* \"CONTRACTS/Task_2.sol\":1108:1201  function getUint8() external view override returns (uint8) {... */\n    tag_36:\n        /* \"CONTRACTS/Task_2.sol\":1160:1165  uint8 */\n      0x00\n        /* \"CONTRACTS/Task_2.sol\":1184:1194  uint8Value */\n      0x02\n      0x01\n      swap1\n      sload\n      swap1\n      0x0100\n      exp\n      swap1\n      div\n      0xff\n      and\n        /* \"CONTRACTS/Task_2.sol\":1177:1194  return uint8Value */\n      swap1\n      pop\n        /* \"CONTRACTS/Task_2.sol\":1108:1201  function getUint8() external view override returns (uint8) {... */\n      swap1\n      jump\t// out\n        /* \"CONTRACTS/Task_2.sol\":461:512  uint256[5] public arrayUint5Value = [1, 2, 3, 4, 5] */\n    tag_42:\n      0x04\n      dup2\n      0x05\n      dup2\n      lt\n      tag_106\n      jumpi\n      0x00\n      dup1\n      revert\n    tag_106:\n      add\n      0x00\n      swap2\n      pop\n      swap1\n      pop\n      sload\n      dup2\n      jump\t// out\n        /* \"CONTRACTS/Task_2.sol\":1303:1402  function getAddress() external view override returns (address) {... */\n    tag_46:\n        /* \"CONTRACTS/Task_2.sol\":1357:1364  address */\n      0x00\n        /* \"CONTRACTS/Task_2.sol\":1383:1395  addressValue */\n      0x02\n      0x03\n      swap1\n      sload\n      swap1\n      0x0100\n      exp\n      swap1\n      div\n      0xffffffffffffffffffffffffffffffffffffffff\n      and\n        /* \"CONTRACTS/Task_2.sol\":1376:1395  return addressValue */\n      swap1\n      pop\n        /* \"CONTRACTS/Task_2.sol\":1303:1402  function getAddress() external view override returns (address) {... */\n      swap1\n      jump\t// out\n        /* \"CONTRACTS/Task_2.sol\":234:260  int8 public int8Value = -1 */\n    tag_50:\n      0x02\n      0x00\n      swap1\n      sload\n      swap1\n      0x0100\n      exp\n      swap1\n      div\n      0x00\n      signextend\n      dup2\n      jump\t// out\n        /* \"CONTRACTS/Task_2.sol\":1012:1102  function getInt8() external view override returns (int8) {... */\n    tag_54:\n        /* \"CONTRACTS/Task_2.sol\":1063:1067  int8 */\n      0x00\n        /* \"CONTRACTS/Task_2.sol\":1086:1095  int8Value */\n      0x02\n      0x00\n      swap1\n      sload\n      swap1\n      0x0100\n      exp\n      swap1\n      div\n      0x00\n      signextend\n        /* \"CONTRACTS/Task_2.sol\":1079:1095  return int8Value */\n      swap1\n      pop\n        /* \"CONTRACTS/Task_2.sol\":1012:1102  function getInt8() external view override returns (int8) {... */\n      swap1\n      jump\t// out\n        /* \"CONTRACTS/Task_2.sol\":197:228  uint256 public uint256Value = 1 */\n    tag_57:\n      sload(0x01)\n      dup2\n      jump\t// out\n        /* \"CONTRACTS/Task_2.sol\":907:1006  function getUint256() external view override returns (uint256) {... */\n    tag_60:\n        /* \"CONTRACTS/Task_2.sol\":961:968  uint256 */\n      0x00\n        /* \"CONTRACTS/Task_2.sol\":987:999  uint256Value */\n      sload(0x01)\n        /* \"CONTRACTS/Task_2.sol\":980:999  return uint256Value */\n      swap1\n      pop\n        /* \"CONTRACTS/Task_2.sol\":907:1006  function getUint256() external view override returns (uint256) {... */\n      swap1\n      jump\t// out\n        /* \"CONTRACTS/Task_2.sol\":411:455  bytes32 public bytes32Value = \"Hello World!\" */\n    tag_63:\n      sload(0x03)\n      dup2\n      jump\t// out\n        /* \"CONTRACTS/Task_2.sol\":574:616  string public stringValue = \"Hello World!\" */\n    tag_66:\n      0x0a\n      dup1\n      sload\n      tag_111\n      swap1\n      tag_112\n      jump\t// in\n    tag_111:\n      dup1\n      0x1f\n      add\n      0x20\n      dup1\n      swap2\n      div\n      mul\n      0x20\n      add\n      mload(0x40)\n      swap1\n      dup2\n      add\n      0x40\n      mstore\n      dup1\n      swap3\n      swap2\n      swap1\n      dup2\n      dup2\n      mstore\n      0x20\n      add\n      dup3\n      dup1\n      sload\n      tag_113\n      swap1\n      tag_112\n      jump\t// in\n    tag_113:\n      dup1\n      iszero\n      tag_114\n      jumpi\n      dup1\n      0x1f\n      lt\n      tag_115\n      jumpi\n      0x0100\n      dup1\n      dup4\n      sload\n      div\n      mul\n      dup4\n      mstore\n      swap2\n      0x20\n      add\n      swap2\n      jump(tag_114)\n    tag_115:\n      dup3\n      add\n      swap2\n      swap1\n      0x00\n      mstore\n      keccak256(0x00, 0x20)\n      swap1\n    tag_116:\n      dup2\n      sload\n      dup2\n      mstore\n      swap1\n      0x01\n      add\n      swap1\n      0x20\n      add\n      dup1\n      dup4\n      gt\n      tag_116\n      jumpi\n      dup3\n      swap1\n      sub\n      0x1f\n      and\n      dup3\n      add\n      swap2\n    tag_114:\n      pop\n      pop\n      pop\n      pop\n      pop\n      dup2\n      jump\t// out\n        /* \"CONTRACTS/Task_2.sol\":518:568  uint256[] public arrayUintValue = new uint256[](5) */\n    tag_71:\n      0x09\n      dup2\n      dup2\n      sload\n      dup2\n      lt\n      tag_117\n      jumpi\n      0x00\n      dup1\n      revert\n    tag_117:\n      swap1\n      0x00\n      mstore\n      keccak256(0x00, 0x20)\n      add\n      0x00\n      swap2\n      pop\n      swap1\n      pop\n      sload\n      dup2\n      jump\t// out\n        /* \"CONTRACTS/Task_2.sol\":161:191  int256 public int256Value = -1 */\n    tag_74:\n      sload(0x00)\n      dup2\n      jump\t// out\n        /* \"CONTRACTS/Task_2.sol\":1752:1855  function getString() external view override returns (string memory) {... */\n    tag_78:\n        /* \"CONTRACTS/Task_2.sol\":1805:1818  string memory */\n      0x60\n        /* \"CONTRACTS/Task_2.sol\":1837:1848  stringValue */\n      0x0a\n        /* \"CONTRACTS/Task_2.sol\":1830:1848  return stringValue */\n      dup1\n      sload\n      tag_120\n      swap1\n      tag_112\n      jump\t// in\n    tag_120:\n      dup1\n      0x1f\n      add\n      0x20\n      dup1\n      swap2\n      div\n      mul\n      0x20\n      add\n      mload(0x40)\n      swap1\n      dup2\n      add\n      0x40\n      mstore\n      dup1\n      swap3\n      swap2\n      swap1\n      dup2\n      dup2\n      mstore\n      0x20\n      add\n      dup3\n      dup1\n      sload\n      tag_121\n      swap1\n      tag_112\n      jump\t// in\n    tag_121:\n      dup1\n      iszero\n      tag_122\n      jumpi\n      dup1\n      0x1f\n      lt\n      tag_123\n      jumpi\n      0x0100\n      dup1\n      dup4\n      sload\n      div\n      mul\n      dup4\n      mstore\n      swap2\n      0x20\n      add\n      swap2\n      jump(tag_122)\n    tag_123:\n      dup3\n      add\n      swap2\n      swap1\n      0x00\n      mstore\n      keccak256(0x00, 0x20)\n      swap1\n    tag_124:\n      dup2\n      sload\n      dup2\n      mstore\n      swap1\n      0x01\n      add\n      swap1\n      0x20\n      add\n      dup1\n      dup4\n      gt\n      tag_124\n      jumpi\n      dup3\n      swap1\n      sub\n      0x1f\n      and\n      dup3\n      add\n      swap2\n    tag_122:\n      pop\n      pop\n      pop\n      pop\n      pop\n      swap1\n      pop\n        /* \"CONTRACTS/Task_2.sol\":1752:1855  function getString() external view override returns (string memory) {... */\n      swap1\n      jump\t// out\n        /* \"CONTRACTS/Task_2.sol\":1513:1628  function getArrayUint5() external view override returns (uint256[5] memory) {... */\n    tag_81:\n        /* \"CONTRACTS/Task_2.sol\":1570:1587  uint256[5] memory */\n      tag_125\n      tag_126\n      jump\t// in\n    tag_125:\n        /* \"CONTRACTS/Task_2.sol\":1606:1621  arrayUint5Value */\n      0x04\n        /* \"CONTRACTS/Task_2.sol\":1599:1621  return arrayUint5Value */\n      0x05\n      dup1\n      0x20\n      mul\n      mload(0x40)\n      swap1\n      dup2\n      add\n      0x40\n      mstore\n      dup1\n      swap3\n      swap2\n      swap1\n      dup3\n      0x05\n      dup1\n      iszero\n      tag_128\n      jumpi\n      0x20\n      mul\n      dup3\n      add\n      swap2\n    tag_129:\n      dup2\n      sload\n      dup2\n      mstore\n      0x20\n      add\n      swap1\n      0x01\n      add\n      swap1\n      dup1\n      dup4\n      gt\n      tag_129\n      jumpi\n    tag_128:\n      pop\n      pop\n      pop\n      pop\n      pop\n      swap1\n      pop\n        /* \"CONTRACTS/Task_2.sol\":1513:1628  function getArrayUint5() external view override returns (uint256[5] memory) {... */\n      swap1\n      jump\t// out\n        /* \"CONTRACTS/Task_2.sol\":299:327  bool public boolValue = true */\n    tag_85:\n      0x02\n      dup1\n      sload\n      swap1\n      0x0100\n      exp\n      swap1\n      div\n      0xff\n      and\n      dup2\n      jump\t// out\n        /* \"CONTRACTS/Task_2.sol\":1861:2070  function getBigUint() external pure override returns (uint256) {... */\n    tag_88:\n        /* \"CONTRACTS/Task_2.sol\":1915:1922  uint256 */\n      0x00\n        /* \"CONTRACTS/Task_2.sol\":1934:1944  uint256 v1 */\n      dup1\n        /* \"CONTRACTS/Task_2.sol\":1947:1948  1 */\n      0x01\n        /* \"CONTRACTS/Task_2.sol\":1934:1948  uint256 v1 = 1 */\n      swap1\n      pop\n        /* \"CONTRACTS/Task_2.sol\":1958:1968  uint256 v2 */\n      0x00\n        /* \"CONTRACTS/Task_2.sol\":1971:1972  2 */\n      0x02\n        /* \"CONTRACTS/Task_2.sol\":1958:1972  uint256 v2 = 2 */\n      swap1\n      pop\n        /* \"CONTRACTS/Task_2.sol\":2002:2004  v2 */\n      dup1\n        /* \"CONTRACTS/Task_2.sol\":1996:1998  v2 */\n      dup2\n        /* \"CONTRACTS/Task_2.sol\":1990:1992  v1 */\n      dup4\n        /* \"CONTRACTS/Task_2.sol\":1990:1998  v1 ** v2 */\n      tag_131\n      swap2\n      swap1\n      tag_132\n      jump\t// in\n    tag_131:\n        /* \"CONTRACTS/Task_2.sol\":1989:2004  (v1 ** v2) * v2 */\n      tag_133\n      swap2\n      swap1\n      tag_134\n      jump\t// in\n    tag_133:\n        /* \"CONTRACTS/Task_2.sol\":1982:2004  return (v1 ** v2) * v2 */\n      swap3\n      pop\n      pop\n      pop\n        /* \"CONTRACTS/Task_2.sol\":1861:2070  function getBigUint() external pure override returns (uint256) {... */\n      swap1\n      jump\t// out\n        /* \"CONTRACTS/Task_2.sol\":266:293  uint8 public uint8Value = 1 */\n    tag_91:\n      0x02\n      0x01\n      swap1\n      sload\n      swap1\n      0x0100\n      exp\n      swap1\n      div\n      0xff\n      and\n      dup2\n      jump\t// out\n        /* \"CONTRACTS/Task_2.sol\":1634:1746  function getArrayUint() external view override returns (uint256[] memory) {... */\n    tag_94:\n        /* \"CONTRACTS/Task_2.sol\":1690:1706  uint256[] memory */\n      0x60\n        /* \"CONTRACTS/Task_2.sol\":1725:1739  arrayUintValue */\n      0x09\n        /* \"CONTRACTS/Task_2.sol\":1718:1739  return arrayUintValue */\n      dup1\n      sload\n      dup1\n      0x20\n      mul\n      0x20\n      add\n      mload(0x40)\n      swap1\n      dup2\n      add\n      0x40\n      mstore\n      dup1\n      swap3\n      swap2\n      swap1\n      dup2\n      dup2\n      mstore\n      0x20\n      add\n      dup3\n      dup1\n      sload\n      dup1\n      iszero\n      tag_136\n      jumpi\n      0x20\n      mul\n      dup3\n      add\n      swap2\n      swap1\n      0x00\n      mstore\n      keccak256(0x00, 0x20)\n      swap1\n    tag_137:\n      dup2\n      sload\n      dup2\n      mstore\n      0x20\n      add\n      swap1\n      0x01\n      add\n      swap1\n      dup1\n      dup4\n      gt\n      tag_137\n      jumpi\n    tag_136:\n      pop\n      pop\n      pop\n      pop\n      pop\n      swap1\n      pop\n        /* \"CONTRACTS/Task_2.sol\":1634:1746  function getArrayUint() external view override returns (uint256[] memory) {... */\n      swap1\n      jump\t// out\n        /* \"CONTRACTS/Task_2.sol\":333:405  address public addressValue = 0xdCad3a6d3569DF655070DEd06cb7A1b2Ccd1D3AF */\n    tag_98:\n      0x02\n      0x03\n      swap1\n      sload\n      swap1\n      0x0100\n      exp\n      swap1\n      div\n      0xffffffffffffffffffffffffffffffffffffffff\n      and\n      dup2\n      jump\t// out\n        /* \"CONTRACTS/Task_2.sol\":805:901  function getInt256() external view override returns (int256) {... */\n    tag_101:\n        /* \"CONTRACTS/Task_2.sol\":858:864  int256 */\n      0x00\n        /* \"CONTRACTS/Task_2.sol\":883:894  int256Value */\n      dup1\n      sload\n        /* \"CONTRACTS/Task_2.sol\":876:894  return int256Value */\n      swap1\n      pop\n        /* \"CONTRACTS/Task_2.sol\":805:901  function getInt256() external view override returns (int256) {... */\n      swap1\n      jump\t// out\n    tag_126:\n      mload(0x40)\n      dup1\n      0xa0\n      add\n      0x40\n      mstore\n      dup1\n      0x05\n      swap1\n      0x20\n      dup3\n      mul\n      dup1\n      calldatasize\n      dup4\n      calldatacopy\n      dup1\n      dup3\n      add\n      swap2\n      pop\n      pop\n      swap1\n      pop\n      pop\n      swap1\n      jump\t// out\n        /* \"#utility.yul\":7:97   */\n    tag_139:\n        /* \"#utility.yul\":41:48   */\n      0x00\n        /* \"#utility.yul\":84:89   */\n      dup2\n        /* \"#utility.yul\":77:90   */\n      iszero\n        /* \"#utility.yul\":70:91   */\n      iszero\n        /* \"#utility.yul\":59:91   */\n      swap1\n      pop\n        /* \"#utility.yul\":7:97   */\n      swap2\n      swap1\n      pop\n      jump\t// out\n        /* \"#utility.yul\":103:212   */\n    tag_140:\n        /* \"#utility.yul\":184:205   */\n      tag_184\n        /* \"#utility.yul\":199:204   */\n      dup2\n        /* \"#utility.yul\":184:205   */\n      tag_139\n      jump\t// in\n    tag_184:\n        /* \"#utility.yul\":179:182   */\n      dup3\n        /* \"#utility.yul\":172:206   */\n      mstore\n        /* \"#utility.yul\":103:212   */\n      pop\n      pop\n      jump\t// out\n        /* \"#utility.yul\":218:428   */\n    tag_30:\n        /* \"#utility.yul\":305:309   */\n      0x00\n        /* \"#utility.yul\":343:345   */\n      0x20\n        /* \"#utility.yul\":332:341   */\n      dup3\n        /* \"#utility.yul\":328:346   */\n      add\n        /* \"#utility.yul\":320:346   */\n      swap1\n      pop\n        /* \"#utility.yul\":356:421   */\n      tag_186\n        /* \"#utility.yul\":418:419   */\n      0x00\n        /* \"#utility.yul\":407:416   */\n      dup4\n        /* \"#utility.yul\":403:420   */\n      add\n        /* \"#utility.yul\":394:400   */\n      dup5\n        /* \"#utility.yul\":356:421   */\n      tag_140\n      jump\t// in\n    tag_186:\n        /* \"#utility.yul\":218:428   */\n      swap3\n      swap2\n      pop\n      pop\n      jump\t// out\n        /* \"#utility.yul\":434:511   */\n    tag_141:\n        /* \"#utility.yul\":471:478   */\n      0x00\n        /* \"#utility.yul\":500:505   */\n      dup2\n        /* \"#utility.yul\":489:505   */\n      swap1\n      pop\n        /* \"#utility.yul\":434:511   */\n      swap2\n      swap1\n      pop\n      jump\t// out\n        /* \"#utility.yul\":517:635   */\n    tag_142:\n        /* \"#utility.yul\":604:628   */\n      tag_189\n        /* \"#utility.yul\":622:627   */\n      dup2\n        /* \"#utility.yul\":604:628   */\n      tag_141\n      jump\t// in\n    tag_189:\n        /* \"#utility.yul\":599:602   */\n      dup3\n        /* \"#utility.yul\":592:629   */\n      mstore\n        /* \"#utility.yul\":517:635   */\n      pop\n      pop\n      jump\t// out\n        /* \"#utility.yul\":641:863   */\n    tag_34:\n        /* \"#utility.yul\":734:738   */\n      0x00\n        /* \"#utility.yul\":772:774   */\n      0x20\n        /* \"#utility.yul\":761:770   */\n      dup3\n        /* \"#utility.yul\":757:775   */\n      add\n        /* \"#utility.yul\":749:775   */\n      swap1\n      pop\n        /* \"#utility.yul\":785:856   */\n      tag_191\n        /* \"#utility.yul\":853:854   */\n      0x00\n        /* \"#utility.yul\":842:851   */\n      dup4\n        /* \"#utility.yul\":838:855   */\n      add\n        /* \"#utility.yul\":829:835   */\n      dup5\n        /* \"#utility.yul\":785:856   */\n      tag_142\n      jump\t// in\n    tag_191:\n        /* \"#utility.yul\":641:863   */\n      swap3\n      swap2\n      pop\n      pop\n      jump\t// out\n        /* \"#utility.yul\":869:955   */\n    tag_143:\n        /* \"#utility.yul\":904:911   */\n      0x00\n        /* \"#utility.yul\":944:948   */\n      0xff\n        /* \"#utility.yul\":937:942   */\n      dup3\n        /* \"#utility.yul\":933:949   */\n      and\n        /* \"#utility.yul\":922:949   */\n      swap1\n      pop\n        /* \"#utility.yul\":869:955   */\n      swap2\n      swap1\n      pop\n      jump\t// out\n        /* \"#utility.yul\":961:1073   */\n    tag_144:\n        /* \"#utility.yul\":1044:1066   */\n      tag_194\n        /* \"#utility.yul\":1060:1065   */\n      dup2\n        /* \"#utility.yul\":1044:1066   */\n      tag_143\n      jump\t// in\n    tag_194:\n        /* \"#utility.yul\":1039:1042   */\n      dup3\n        /* \"#utility.yul\":1032:1067   */\n      mstore\n        /* \"#utility.yul\":961:1073   */\n      pop\n      pop\n      jump\t// out\n        /* \"#utility.yul\":1079:1293   */\n    tag_38:\n        /* \"#utility.yul\":1168:1172   */\n      0x00\n        /* \"#utility.yul\":1206:1208   */\n      0x20\n        /* \"#utility.yul\":1195:1204   */\n      dup3\n        /* \"#utility.yul\":1191:1209   */\n      add\n        /* \"#utility.yul\":1183:1209   */\n      swap1\n      pop\n        /* \"#utility.yul\":1219:1286   */\n      tag_196\n        /* \"#utility.yul\":1283:1284   */\n      0x00\n        /* \"#utility.yul\":1272:1281   */\n      dup4\n        /* \"#utility.yul\":1268:1285   */\n      add\n        /* \"#utility.yul\":1259:1265   */\n      dup5\n        /* \"#utility.yul\":1219:1286   */\n      tag_144\n      jump\t// in\n    tag_196:\n        /* \"#utility.yul\":1079:1293   */\n      swap3\n      swap2\n      pop\n      pop\n      jump\t// out\n        /* \"#utility.yul\":1380:1497   */\n    tag_146:\n        /* \"#utility.yul\":1489:1490   */\n      0x00\n        /* \"#utility.yul\":1486:1487   */\n      dup1\n        /* \"#utility.yul\":1479:1491   */\n      revert\n        /* \"#utility.yul\":1626:1703   */\n    tag_148:\n        /* \"#utility.yul\":1663:1670   */\n      0x00\n        /* \"#utility.yul\":1692:1697   */\n      dup2\n        /* \"#utility.yul\":1681:1697   */\n      swap1\n      pop\n        /* \"#utility.yul\":1626:1703   */\n      swap2\n      swap1\n      pop\n      jump\t// out\n        /* \"#utility.yul\":1709:1831   */\n    tag_149:\n        /* \"#utility.yul\":1782:1806   */\n      tag_202\n        /* \"#utility.yul\":1800:1805   */\n      dup2\n        /* \"#utility.yul\":1782:1806   */\n      tag_148\n      jump\t// in\n    tag_202:\n        /* \"#utility.yul\":1775:1780   */\n      dup2\n        /* \"#utility.yul\":1772:1807   */\n      eq\n        /* \"#utility.yul\":1762:1825   */\n      tag_203\n      jumpi\n        /* \"#utility.yul\":1821:1822   */\n      0x00\n        /* \"#utility.yul\":1818:1819   */\n      dup1\n        /* \"#utility.yul\":1811:1823   */\n      revert\n        /* \"#utility.yul\":1762:1825   */\n    tag_203:\n        /* \"#utility.yul\":1709:1831   */\n      pop\n      jump\t// out\n        /* \"#utility.yul\":1837:1976   */\n    tag_150:\n        /* \"#utility.yul\":1883:1888   */\n      0x00\n        /* \"#utility.yul\":1921:1927   */\n      dup2\n        /* \"#utility.yul\":1908:1928   */\n      calldataload\n        /* \"#utility.yul\":1899:1928   */\n      swap1\n      pop\n        /* \"#utility.yul\":1937:1970   */\n      tag_205\n        /* \"#utility.yul\":1964:1969   */\n      dup2\n        /* \"#utility.yul\":1937:1970   */\n      tag_149\n      jump\t// in\n    tag_205:\n        /* \"#utility.yul\":1837:1976   */\n      swap3\n      swap2\n      pop\n      pop\n      jump\t// out\n        /* \"#utility.yul\":1982:2311   */\n    tag_41:\n        /* \"#utility.yul\":2041:2047   */\n      0x00\n        /* \"#utility.yul\":2090:2092   */\n      0x20\n        /* \"#utility.yul\":2078:2087   */\n      dup3\n        /* \"#utility.yul\":2069:2076   */\n      dup5\n        /* \"#utility.yul\":2065:2088   */\n      sub\n        /* \"#utility.yul\":2061:2093   */\n      slt\n        /* \"#utility.yul\":2058:2177   */\n      iszero\n      tag_207\n      jumpi\n        /* \"#utility.yul\":2096:2175   */\n      tag_208\n      tag_146\n      jump\t// in\n    tag_208:\n        /* \"#utility.yul\":2058:2177   */\n    tag_207:\n        /* \"#utility.yul\":2216:2217   */\n      0x00\n        /* \"#utility.yul\":2241:2294   */\n      tag_209\n        /* \"#utility.yul\":2286:2293   */\n      dup5\n        /* \"#utility.yul\":2277:2283   */\n      dup3\n        /* \"#utility.yul\":2266:2275   */\n      dup6\n        /* \"#utility.yul\":2262:2284   */\n      add\n        /* \"#utility.yul\":2241:2294   */\n      tag_150\n      jump\t// in\n    tag_209:\n        /* \"#utility.yul\":2231:2294   */\n      swap2\n      pop\n        /* \"#utility.yul\":2187:2304   */\n      pop\n        /* \"#utility.yul\":1982:2311   */\n      swap3\n      swap2\n      pop\n      pop\n      jump\t// out\n        /* \"#utility.yul\":2317:2435   */\n    tag_151:\n        /* \"#utility.yul\":2404:2428   */\n      tag_211\n        /* \"#utility.yul\":2422:2427   */\n      dup2\n        /* \"#utility.yul\":2404:2428   */\n      tag_148\n      jump\t// in\n    tag_211:\n        /* \"#utility.yul\":2399:2402   */\n      dup3\n        /* \"#utility.yul\":2392:2429   */\n      mstore\n        /* \"#utility.yul\":2317:2435   */\n      pop\n      pop\n      jump\t// out\n        /* \"#utility.yul\":2441:2663   */\n    tag_44:\n        /* \"#utility.yul\":2534:2538   */\n      0x00\n        /* \"#utility.yul\":2572:2574   */\n      0x20\n        /* \"#utility.yul\":2561:2570   */\n      dup3\n        /* \"#utility.yul\":2557:2575   */\n      add\n        /* \"#utility.yul\":2549:2575   */\n      swap1\n      pop\n        /* \"#utility.yul\":2585:2656   */\n      tag_213\n        /* \"#utility.yul\":2653:2654   */\n      0x00\n        /* \"#utility.yul\":2642:2651   */\n      dup4\n        /* \"#utility.yul\":2638:2655   */\n      add\n        /* \"#utility.yul\":2629:2635   */\n      dup5\n        /* \"#utility.yul\":2585:2656   */\n      tag_151\n      jump\t// in\n    tag_213:\n        /* \"#utility.yul\":2441:2663   */\n      swap3\n      swap2\n      pop\n      pop\n      jump\t// out\n        /* \"#utility.yul\":2669:2795   */\n    tag_152:\n        /* \"#utility.yul\":2706:2713   */\n      0x00\n        /* \"#utility.yul\":2746:2788   */\n      0xffffffffffffffffffffffffffffffffffffffff\n        /* \"#utility.yul\":2739:2744   */\n      dup3\n        /* \"#utility.yul\":2735:2789   */\n      and\n        /* \"#utility.yul\":2724:2789   */\n      swap1\n      pop\n        /* \"#utility.yul\":2669:2795   */\n      swap2\n      swap1\n      pop\n      jump\t// out\n        /* \"#utility.yul\":2801:2897   */\n    tag_153:\n        /* \"#utility.yul\":2838:2845   */\n      0x00\n        /* \"#utility.yul\":2867:2891   */\n      tag_216\n        /* \"#utility.yul\":2885:2890   */\n      dup3\n        /* \"#utility.yul\":2867:2891   */\n      tag_152\n      jump\t// in\n    tag_216:\n        /* \"#utility.yul\":2856:2891   */\n      swap1\n      pop\n        /* \"#utility.yul\":2801:2897   */\n      swap2\n      swap1\n      pop\n      jump\t// out\n        /* \"#utility.yul\":2903:3021   */\n    tag_154:\n        /* \"#utility.yul\":2990:3014   */\n      tag_218\n        /* \"#utility.yul\":3008:3013   */\n      dup2\n        /* \"#utility.yul\":2990:3014   */\n      tag_153\n      jump\t// in\n    tag_218:\n        /* \"#utility.yul\":2985:2988   */\n      dup3\n        /* \"#utility.yul\":2978:3015   */\n      mstore\n        /* \"#utility.yul\":2903:3021   */\n      pop\n      pop\n      jump\t// out\n        /* \"#utility.yul\":3027:3249   */\n    tag_48:\n        /* \"#utility.yul\":3120:3124   */\n      0x00\n        /* \"#utility.yul\":3158:3160   */\n      0x20\n        /* \"#utility.yul\":3147:3156   */\n      dup3\n        /* \"#utility.yul\":3143:3161   */\n      add\n        /* \"#utility.yul\":3135:3161   */\n      swap1\n      pop\n        /* \"#utility.yul\":3171:3242   */\n      tag_220\n        /* \"#utility.yul\":3239:3240   */\n      0x00\n        /* \"#utility.yul\":3228:3237   */\n      dup4\n        /* \"#utility.yul\":3224:3241   */\n      add\n        /* \"#utility.yul\":3215:3221   */\n      dup5\n        /* \"#utility.yul\":3171:3242   */\n      tag_154\n      jump\t// in\n    tag_220:\n        /* \"#utility.yul\":3027:3249   */\n      swap3\n      swap2\n      pop\n      pop\n      jump\t// out\n        /* \"#utility.yul\":3255:3344   */\n    tag_155:\n        /* \"#utility.yul\":3289:3296   */\n      0x00\n        /* \"#utility.yul\":3332:3337   */\n      dup2\n        /* \"#utility.yul\":3329:3330   */\n      0x00\n        /* \"#utility.yul\":3318:3338   */\n      signextend\n        /* \"#utility.yul\":3307:3338   */\n      swap1\n      pop\n        /* \"#utility.yul\":3255:3344   */\n      swap2\n      swap1\n      pop\n      jump\t// out\n        /* \"#utility.yul\":3350:3459   */\n    tag_156:\n        /* \"#utility.yul\":3431:3452   */\n      tag_223\n        /* \"#utility.yul\":3446:3451   */\n      dup2\n        /* \"#utility.yul\":3431:3452   */\n      tag_155\n      jump\t// in\n    tag_223:\n        /* \"#utility.yul\":3426:3429   */\n      dup3\n        /* \"#utility.yul\":3419:3453   */\n      mstore\n        /* \"#utility.yul\":3350:3459   */\n      pop\n      pop\n      jump\t// out\n        /* \"#utility.yul\":3465:3675   */\n    tag_52:\n        /* \"#utility.yul\":3552:3556   */\n      0x00\n        /* \"#utility.yul\":3590:3592   */\n      0x20\n        /* \"#utility.yul\":3579:3588   */\n      dup3\n        /* \"#utility.yul\":3575:3593   */\n      add\n        /* \"#utility.yul\":3567:3593   */\n      swap1\n      pop\n        /* \"#utility.yul\":3603:3668   */\n      tag_225\n        /* \"#utility.yul\":3665:3666   */\n      0x00\n        /* \"#utility.yul\":3654:3663   */\n      dup4\n        /* \"#utility.yul\":3650:3667   */\n      add\n        /* \"#utility.yul\":3641:3647   */\n      dup5\n        /* \"#utility.yul\":3603:3668   */\n      tag_156\n      jump\t// in\n    tag_225:\n        /* \"#utility.yul\":3465:3675   */\n      swap3\n      swap2\n      pop\n      pop\n      jump\t// out\n        /* \"#utility.yul\":3681:3780   */\n    tag_157:\n        /* \"#utility.yul\":3733:3739   */\n      0x00\n        /* \"#utility.yul\":3767:3772   */\n      dup2\n        /* \"#utility.yul\":3761:3773   */\n      mload\n        /* \"#utility.yul\":3751:3773   */\n      swap1\n      pop\n        /* \"#utility.yul\":3681:3780   */\n      swap2\n      swap1\n      pop\n      jump\t// out\n        /* \"#utility.yul\":3786:3955   */\n    tag_158:\n        /* \"#utility.yul\":3870:3881   */\n      0x00\n        /* \"#utility.yul\":3904:3910   */\n      dup3\n        /* \"#utility.yul\":3899:3902   */\n      dup3\n        /* \"#utility.yul\":3892:3911   */\n      mstore\n        /* \"#utility.yul\":3944:3948   */\n      0x20\n        /* \"#utility.yul\":3939:3942   */\n      dup3\n        /* \"#utility.yul\":3935:3949   */\n      add\n        /* \"#utility.yul\":3920:3949   */\n      swap1\n      pop\n        /* \"#utility.yul\":3786:3955   */\n      swap3\n      swap2\n      pop\n      pop\n      jump\t// out\n        /* \"#utility.yul\":3961:4207   */\n    tag_159:\n        /* \"#utility.yul\":4042:4043   */\n      0x00\n        /* \"#utility.yul\":4052:4165   */\n    tag_229:\n        /* \"#utility.yul\":4066:4072   */\n      dup4\n        /* \"#utility.yul\":4063:4064   */\n      dup2\n        /* \"#utility.yul\":4060:4073   */\n      lt\n        /* \"#utility.yul\":4052:4165   */\n      iszero\n      tag_231\n      jumpi\n        /* \"#utility.yul\":4151:4152   */\n      dup1\n        /* \"#utility.yul\":4146:4149   */\n      dup3\n        /* \"#utility.yul\":4142:4153   */\n      add\n        /* \"#utility.yul\":4136:4154   */\n      mload\n        /* \"#utility.yul\":4132:4133   */\n      dup2\n        /* \"#utility.yul\":4127:4130   */\n      dup5\n        /* \"#utility.yul\":4123:4134   */\n      add\n        /* \"#utility.yul\":4116:4155   */\n      mstore\n        /* \"#utility.yul\":4088:4090   */\n      0x20\n        /* \"#utility.yul\":4085:4086   */\n      dup2\n        /* \"#utility.yul\":4081:4091   */\n      add\n        /* \"#utility.yul\":4076:4091   */\n      swap1\n      pop\n        /* \"#utility.yul\":4052:4165   */\n      jump(tag_229)\n    tag_231:\n        /* \"#utility.yul\":4199:4200   */\n      0x00\n        /* \"#utility.yul\":4190:4196   */\n      dup5\n        /* \"#utility.yul\":4185:4188   */\n      dup5\n        /* \"#utility.yul\":4181:4197   */\n      add\n        /* \"#utility.yul\":4174:4201   */\n      mstore\n        /* \"#utility.yul\":4023:4207   */\n      pop\n        /* \"#utility.yul\":3961:4207   */\n      pop\n      pop\n      pop\n      jump\t// out\n        /* \"#utility.yul\":4213:4315   */\n    tag_160:\n        /* \"#utility.yul\":4254:4260   */\n      0x00\n        /* \"#utility.yul\":4305:4307   */\n      0x1f\n        /* \"#utility.yul\":4301:4308   */\n      not\n        /* \"#utility.yul\":4296:4298   */\n      0x1f\n        /* \"#utility.yul\":4289:4294   */\n      dup4\n        /* \"#utility.yul\":4285:4299   */\n      add\n        /* \"#utility.yul\":4281:4309   */\n      and\n        /* \"#utility.yul\":4271:4309   */\n      swap1\n      pop\n        /* \"#utility.yul\":4213:4315   */\n      swap2\n      swap1\n      pop\n      jump\t// out\n        /* \"#utility.yul\":4321:4698   */\n    tag_161:\n        /* \"#utility.yul\":4409:4412   */\n      0x00\n        /* \"#utility.yul\":4437:4476   */\n      tag_234\n        /* \"#utility.yul\":4470:4475   */\n      dup3\n        /* \"#utility.yul\":4437:4476   */\n      tag_157\n      jump\t// in\n    tag_234:\n        /* \"#utility.yul\":4492:4563   */\n      tag_235\n        /* \"#utility.yul\":4556:4562   */\n      dup2\n        /* \"#utility.yul\":4551:4554   */\n      dup6\n        /* \"#utility.yul\":4492:4563   */\n      tag_158\n      jump\t// in\n    tag_235:\n        /* \"#utility.yul\":4485:4563   */\n      swap4\n      pop\n        /* \"#utility.yul\":4572:4637   */\n      tag_236\n        /* \"#utility.yul\":4630:4636   */\n      dup2\n        /* \"#utility.yul\":4625:4628   */\n      dup6\n        /* \"#utility.yul\":4618:4622   */\n      0x20\n        /* \"#utility.yul\":4611:4616   */\n      dup7\n        /* \"#utility.yul\":4607:4623   */\n      add\n        /* \"#utility.yul\":4572:4637   */\n      tag_159\n      jump\t// in\n    tag_236:\n        /* \"#utility.yul\":4662:4691   */\n      tag_237\n        /* \"#utility.yul\":4684:4690   */\n      dup2\n        /* \"#utility.yul\":4662:4691   */\n      tag_160\n      jump\t// in\n    tag_237:\n        /* \"#utility.yul\":4657:4660   */\n      dup5\n        /* \"#utility.yul\":4653:4692   */\n      add\n        /* \"#utility.yul\":4646:4692   */\n      swap2\n      pop\n        /* \"#utility.yul\":4413:4698   */\n      pop\n        /* \"#utility.yul\":4321:4698   */\n      swap3\n      swap2\n      pop\n      pop\n      jump\t// out\n        /* \"#utility.yul\":4704:5017   */\n    tag_68:\n        /* \"#utility.yul\":4817:4821   */\n      0x00\n        /* \"#utility.yul\":4855:4857   */\n      0x20\n        /* \"#utility.yul\":4844:4853   */\n      dup3\n        /* \"#utility.yul\":4840:4858   */\n      add\n        /* \"#utility.yul\":4832:4858   */\n      swap1\n      pop\n        /* \"#utility.yul\":4904:4913   */\n      dup2\n        /* \"#utility.yul\":4898:4902   */\n      dup2\n        /* \"#utility.yul\":4894:4914   */\n      sub\n        /* \"#utility.yul\":4890:4891   */\n      0x00\n        /* \"#utility.yul\":4879:4888   */\n      dup4\n        /* \"#utility.yul\":4875:4892   */\n      add\n        /* \"#utility.yul\":4868:4915   */\n      mstore\n        /* \"#utility.yul\":4932:5010   */\n      tag_239\n        /* \"#utility.yul\":5005:5009   */\n      dup2\n        /* \"#utility.yul\":4996:5002   */\n      dup5\n        /* \"#utility.yul\":4932:5010   */\n      tag_161\n      jump\t// in\n    tag_239:\n        /* \"#utility.yul\":4924:5010   */\n      swap1\n      pop\n        /* \"#utility.yul\":4704:5017   */\n      swap3\n      swap2\n      pop\n      pop\n      jump\t// out\n        /* \"#utility.yul\":5023:5099   */\n    tag_162:\n        /* \"#utility.yul\":5059:5066   */\n      0x00\n        /* \"#utility.yul\":5088:5093   */\n      dup2\n        /* \"#utility.yul\":5077:5093   */\n      swap1\n      pop\n        /* \"#utility.yul\":5023:5099   */\n      swap2\n      swap1\n      pop\n      jump\t// out\n        /* \"#utility.yul\":5105:5220   */\n    tag_163:\n        /* \"#utility.yul\":5190:5213   */\n      tag_242\n        /* \"#utility.yul\":5207:5212   */\n      dup2\n        /* \"#utility.yul\":5190:5213   */\n      tag_162\n      jump\t// in\n    tag_242:\n        /* \"#utility.yul\":5185:5188   */\n      dup3\n        /* \"#utility.yul\":5178:5214   */\n      mstore\n        /* \"#utility.yul\":5105:5220   */\n      pop\n      pop\n      jump\t// out\n        /* \"#utility.yul\":5226:5444   */\n    tag_76:\n        /* \"#utility.yul\":5317:5321   */\n      0x00\n        /* \"#utility.yul\":5355:5357   */\n      0x20\n        /* \"#utility.yul\":5344:5353   */\n      dup3\n        /* \"#utility.yul\":5340:5358   */\n      add\n        /* \"#utility.yul\":5332:5358   */\n      swap1\n      pop\n        /* \"#utility.yul\":5368:5437   */\n      tag_244\n        /* \"#utility.yul\":5434:5435   */\n      0x00\n        /* \"#utility.yul\":5423:5432   */\n      dup4\n        /* \"#utility.yul\":5419:5436   */\n      add\n        /* \"#utility.yul\":5410:5416   */\n      dup5\n        /* \"#utility.yul\":5368:5437   */\n      tag_163\n      jump\t// in\n    tag_244:\n        /* \"#utility.yul\":5226:5444   */\n      swap3\n      swap2\n      pop\n      pop\n      jump\t// out\n        /* \"#utility.yul\":5450:5554   */\n    tag_164:\n        /* \"#utility.yul\":5515:5521   */\n      0x00\n        /* \"#utility.yul\":5543:5547   */\n      0x05\n        /* \"#utility.yul\":5533:5547   */\n      swap1\n      pop\n        /* \"#utility.yul\":5450:5554   */\n      swap2\n      swap1\n      pop\n      jump\t// out\n        /* \"#utility.yul\":5560:5703   */\n    tag_165:\n        /* \"#utility.yul\":5657:5668   */\n      0x00\n        /* \"#utility.yul\":5694:5697   */\n      dup2\n        /* \"#utility.yul\":5679:5697   */\n      swap1\n      pop\n        /* \"#utility.yul\":5560:5703   */\n      swap3\n      swap2\n      pop\n      pop\n      jump\t// out\n        /* \"#utility.yul\":5709:5807   */\n    tag_166:\n        /* \"#utility.yul\":5774:5778   */\n      0x00\n        /* \"#utility.yul\":5797:5800   */\n      dup2\n        /* \"#utility.yul\":5789:5800   */\n      swap1\n      pop\n        /* \"#utility.yul\":5709:5807   */\n      swap2\n      swap1\n      pop\n      jump\t// out\n        /* \"#utility.yul\":5813:5921   */\n    tag_167:\n        /* \"#utility.yul\":5890:5914   */\n      tag_249\n        /* \"#utility.yul\":5908:5913   */\n      dup2\n        /* \"#utility.yul\":5890:5914   */\n      tag_148\n      jump\t// in\n    tag_249:\n        /* \"#utility.yul\":5885:5888   */\n      dup3\n        /* \"#utility.yul\":5878:5915   */\n      mstore\n        /* \"#utility.yul\":5813:5921   */\n      pop\n      pop\n      jump\t// out\n        /* \"#utility.yul\":5927:6106   */\n    tag_168:\n        /* \"#utility.yul\":5996:6006   */\n      0x00\n        /* \"#utility.yul\":6017:6063   */\n      tag_251\n        /* \"#utility.yul\":6059:6062   */\n      dup4\n        /* \"#utility.yul\":6051:6057   */\n      dup4\n        /* \"#utility.yul\":6017:6063   */\n      tag_167\n      jump\t// in\n    tag_251:\n        /* \"#utility.yul\":6095:6099   */\n      0x20\n        /* \"#utility.yul\":6090:6093   */\n      dup4\n        /* \"#utility.yul\":6086:6100   */\n      add\n        /* \"#utility.yul\":6072:6100   */\n      swap1\n      pop\n        /* \"#utility.yul\":5927:6106   */\n      swap3\n      swap2\n      pop\n      pop\n      jump\t// out\n        /* \"#utility.yul\":6112:6223   */\n    tag_169:\n        /* \"#utility.yul\":6180:6184   */\n      0x00\n        /* \"#utility.yul\":6212:6216   */\n      0x20\n        /* \"#utility.yul\":6207:6210   */\n      dup3\n        /* \"#utility.yul\":6203:6217   */\n      add\n        /* \"#utility.yul\":6195:6217   */\n      swap1\n      pop\n        /* \"#utility.yul\":6112:6223   */\n      swap2\n      swap1\n      pop\n      jump\t// out\n        /* \"#utility.yul\":6261:6955   */\n    tag_170:\n        /* \"#utility.yul\":6397:6449   */\n      tag_254\n        /* \"#utility.yul\":6443:6448   */\n      dup2\n        /* \"#utility.yul\":6397:6449   */\n      tag_164\n      jump\t// in\n    tag_254:\n        /* \"#utility.yul\":6465:6549   */\n      tag_255\n        /* \"#utility.yul\":6542:6548   */\n      dup2\n        /* \"#utility.yul\":6537:6540   */\n      dup5\n        /* \"#utility.yul\":6465:6549   */\n      tag_165\n      jump\t// in\n    tag_255:\n        /* \"#utility.yul\":6458:6549   */\n      swap3\n      pop\n        /* \"#utility.yul\":6573:6627   */\n      tag_256\n        /* \"#utility.yul\":6621:6626   */\n      dup3\n        /* \"#utility.yul\":6573:6627   */\n      tag_166\n      jump\t// in\n    tag_256:\n        /* \"#utility.yul\":6650:6657   */\n      dup1\n        /* \"#utility.yul\":6681:6682   */\n      0x00\n        /* \"#utility.yul\":6666:6948   */\n    tag_257:\n        /* \"#utility.yul\":6691:6697   */\n      dup4\n        /* \"#utility.yul\":6688:6689   */\n      dup2\n        /* \"#utility.yul\":6685:6698   */\n      lt\n        /* \"#utility.yul\":6666:6948   */\n      iszero\n      tag_259\n      jumpi\n        /* \"#utility.yul\":6767:6773   */\n      dup2\n        /* \"#utility.yul\":6761:6774   */\n      mload\n        /* \"#utility.yul\":6794:6857   */\n      tag_260\n        /* \"#utility.yul\":6853:6856   */\n      dup8\n        /* \"#utility.yul\":6838:6851   */\n      dup3\n        /* \"#utility.yul\":6794:6857   */\n      tag_168\n      jump\t// in\n    tag_260:\n        /* \"#utility.yul\":6787:6857   */\n      swap7\n      pop\n        /* \"#utility.yul\":6880:6938   */\n      tag_261\n        /* \"#utility.yul\":6931:6937   */\n      dup4\n        /* \"#utility.yul\":6880:6938   */\n      tag_169\n      jump\t// in\n    tag_261:\n        /* \"#utility.yul\":6870:6938   */\n      swap3\n      pop\n        /* \"#utility.yul\":6726:6948   */\n      pop\n        /* \"#utility.yul\":6713:6714   */\n      0x01\n        /* \"#utility.yul\":6710:6711   */\n      dup2\n        /* \"#utility.yul\":6706:6715   */\n      add\n        /* \"#utility.yul\":6701:6715   */\n      swap1\n      pop\n        /* \"#utility.yul\":6666:6948   */\n      jump(tag_257)\n    tag_259:\n        /* \"#utility.yul\":6670:6684   */\n      pop\n        /* \"#utility.yul\":6373:6955   */\n      pop\n      pop\n      pop\n        /* \"#utility.yul\":6261:6955   */\n      pop\n      pop\n      jump\t// out\n        /* \"#utility.yul\":6961:7276   */\n    tag_83:\n        /* \"#utility.yul\":7100:7104   */\n      0x00\n        /* \"#utility.yul\":7138:7141   */\n      0xa0\n        /* \"#utility.yul\":7127:7136   */\n      dup3\n        /* \"#utility.yul\":7123:7142   */\n      add\n        /* \"#utility.yul\":7115:7142   */\n      swap1\n      pop\n        /* \"#utility.yul\":7152:7269   */\n      tag_263\n        /* \"#utility.yul\":7266:7267   */\n      0x00\n        /* \"#utility.yul\":7255:7264   */\n      dup4\n        /* \"#utility.yul\":7251:7268   */\n      add\n        /* \"#utility.yul\":7242:7248   */\n      dup5\n        /* \"#utility.yul\":7152:7269   */\n      tag_170\n      jump\t// in\n    tag_263:\n        /* \"#utility.yul\":6961:7276   */\n      swap3\n      swap2\n      pop\n      pop\n      jump\t// out\n        /* \"#utility.yul\":7282:7396   */\n    tag_171:\n        /* \"#utility.yul\":7349:7355   */\n      0x00\n        /* \"#utility.yul\":7383:7388   */\n      dup2\n        /* \"#utility.yul\":7377:7389   */\n      mload\n        /* \"#utility.yul\":7367:7389   */\n      swap1\n      pop\n        /* \"#utility.yul\":7282:7396   */\n      swap2\n      swap1\n      pop\n      jump\t// out\n        /* \"#utility.yul\":7402:7586   */\n    tag_172:\n        /* \"#utility.yul\":7501:7512   */\n      0x00\n        /* \"#utility.yul\":7535:7541   */\n      dup3\n        /* \"#utility.yul\":7530:7533   */\n      dup3\n        /* \"#utility.yul\":7523:7542   */\n      mstore\n        /* \"#utility.yul\":7575:7579   */\n      0x20\n        /* \"#utility.yul\":7570:7573   */\n      dup3\n        /* \"#utility.yul\":7566:7580   */\n      add\n        /* \"#utility.yul\":7551:7580   */\n      swap1\n      pop\n        /* \"#utility.yul\":7402:7586   */\n      swap3\n      swap2\n      pop\n      pop\n      jump\t// out\n        /* \"#utility.yul\":7592:7724   */\n    tag_173:\n        /* \"#utility.yul\":7659:7663   */\n      0x00\n        /* \"#utility.yul\":7682:7685   */\n      dup2\n        /* \"#utility.yul\":7674:7685   */\n      swap1\n      pop\n        /* \"#utility.yul\":7712:7716   */\n      0x20\n        /* \"#utility.yul\":7707:7710   */\n      dup3\n        /* \"#utility.yul\":7703:7717   */\n      add\n        /* \"#utility.yul\":7695:7717   */\n      swap1\n      pop\n        /* \"#utility.yul\":7592:7724   */\n      swap2\n      swap1\n      pop\n      jump\t// out\n        /* \"#utility.yul\":7730:7843   */\n    tag_174:\n        /* \"#utility.yul\":7800:7804   */\n      0x00\n        /* \"#utility.yul\":7832:7836   */\n      0x20\n        /* \"#utility.yul\":7827:7830   */\n      dup3\n        /* \"#utility.yul\":7823:7837   */\n      add\n        /* \"#utility.yul\":7815:7837   */\n      swap1\n      pop\n        /* \"#utility.yul\":7730:7843   */\n      swap2\n      swap1\n      pop\n      jump\t// out\n        /* \"#utility.yul\":7879:8611   */\n    tag_175:\n        /* \"#utility.yul\":7998:8001   */\n      0x00\n        /* \"#utility.yul\":8027:8081   */\n      tag_269\n        /* \"#utility.yul\":8075:8080   */\n      dup3\n        /* \"#utility.yul\":8027:8081   */\n      tag_171\n      jump\t// in\n    tag_269:\n        /* \"#utility.yul\":8097:8183   */\n      tag_270\n        /* \"#utility.yul\":8176:8182   */\n      dup2\n        /* \"#utility.yul\":8171:8174   */\n      dup6\n        /* \"#utility.yul\":8097:8183   */\n      tag_172\n      jump\t// in\n    tag_270:\n        /* \"#utility.yul\":8090:8183   */\n      swap4\n      pop\n        /* \"#utility.yul\":8207:8263   */\n      tag_271\n        /* \"#utility.yul\":8257:8262   */\n      dup4\n        /* \"#utility.yul\":8207:8263   */\n      tag_173\n      jump\t// in\n    tag_271:\n        /* \"#utility.yul\":8286:8293   */\n      dup1\n        /* \"#utility.yul\":8317:8318   */\n      0x00\n        /* \"#utility.yul\":8302:8586   */\n    tag_272:\n        /* \"#utility.yul\":8327:8333   */\n      dup4\n        /* \"#utility.yul\":8324:8325   */\n      dup2\n        /* \"#utility.yul\":8321:8334   */\n      lt\n        /* \"#utility.yul\":8302:8586   */\n      iszero\n      tag_274\n      jumpi\n        /* \"#utility.yul\":8403:8409   */\n      dup2\n        /* \"#utility.yul\":8397:8410   */\n      mload\n        /* \"#utility.yul\":8430:8493   */\n      tag_275\n        /* \"#utility.yul\":8489:8492   */\n      dup9\n        /* \"#utility.yul\":8474:8487   */\n      dup3\n        /* \"#utility.yul\":8430:8493   */\n      tag_168\n      jump\t// in\n    tag_275:\n        /* \"#utility.yul\":8423:8493   */\n      swap8\n      pop\n        /* \"#utility.yul\":8516:8576   */\n      tag_276\n        /* \"#utility.yul\":8569:8575   */\n      dup4\n        /* \"#utility.yul\":8516:8576   */\n      tag_174\n      jump\t// in\n    tag_276:\n        /* \"#utility.yul\":8506:8576   */\n      swap3\n      pop\n        /* \"#utility.yul\":8362:8586   */\n      pop\n        /* \"#utility.yul\":8349:8350   */\n      0x01\n        /* \"#utility.yul\":8346:8347   */\n      dup2\n        /* \"#utility.yul\":8342:8351   */\n      add\n        /* \"#utility.yul\":8337:8351   */\n      swap1\n      pop\n        /* \"#utility.yul\":8302:8586   */\n      jump(tag_272)\n    tag_274:\n        /* \"#utility.yul\":8306:8320   */\n      pop\n        /* \"#utility.yul\":8602:8605   */\n      dup6\n        /* \"#utility.yul\":8595:8605   */\n      swap4\n      pop\n        /* \"#utility.yul\":8003:8611   */\n      pop\n      pop\n      pop\n        /* \"#utility.yul\":7879:8611   */\n      swap3\n      swap2\n      pop\n      pop\n      jump\t// out\n        /* \"#utility.yul\":8617:8990   */\n    tag_96:\n        /* \"#utility.yul\":8760:8764   */\n      0x00\n        /* \"#utility.yul\":8798:8800   */\n      0x20\n        /* \"#utility.yul\":8787:8796   */\n      dup3\n        /* \"#utility.yul\":8783:8801   */\n      add\n        /* \"#utility.yul\":8775:8801   */\n      swap1\n      pop\n        /* \"#utility.yul\":8847:8856   */\n      dup2\n        /* \"#utility.yul\":8841:8845   */\n      dup2\n        /* \"#utility.yul\":8837:8857   */\n      sub\n        /* \"#utility.yul\":8833:8834   */\n      0x00\n        /* \"#utility.yul\":8822:8831   */\n      dup4\n        /* \"#utility.yul\":8818:8835   */\n      add\n        /* \"#utility.yul\":8811:8858   */\n      mstore\n        /* \"#utility.yul\":8875:8983   */\n      tag_278\n        /* \"#utility.yul\":8978:8982   */\n      dup2\n        /* \"#utility.yul\":8969:8975   */\n      dup5\n        /* \"#utility.yul\":8875:8983   */\n      tag_175\n      jump\t// in\n    tag_278:\n        /* \"#utility.yul\":8867:8983   */\n      swap1\n      pop\n        /* \"#utility.yul\":8617:8990   */\n      swap3\n      swap2\n      pop\n      pop\n      jump\t// out\n        /* \"#utility.yul\":8996:9176   */\n    tag_176:\n        /* \"#utility.yul\":9044:9121   */\n      0x4e487b7100000000000000000000000000000000000000000000000000000000\n        /* \"#utility.yul\":9041:9042   */\n      0x00\n        /* \"#utility.yul\":9034:9122   */\n      mstore\n        /* \"#utility.yul\":9141:9145   */\n      0x22\n        /* \"#utility.yul\":9138:9139   */\n      0x04\n        /* \"#utility.yul\":9131:9146   */\n      mstore\n        /* \"#utility.yul\":9165:9169   */\n      0x24\n        /* \"#utility.yul\":9162:9163   */\n      0x00\n        /* \"#utility.yul\":9155:9170   */\n      revert\n        /* \"#utility.yul\":9182:9502   */\n    tag_112:\n        /* \"#utility.yul\":9226:9232   */\n      0x00\n        /* \"#utility.yul\":9263:9264   */\n      0x02\n        /* \"#utility.yul\":9257:9261   */\n      dup3\n        /* \"#utility.yul\":9253:9265   */\n      div\n        /* \"#utility.yul\":9243:9265   */\n      swap1\n      pop\n        /* \"#utility.yul\":9310:9311   */\n      0x01\n        /* \"#utility.yul\":9304:9308   */\n      dup3\n        /* \"#utility.yul\":9300:9312   */\n      and\n        /* \"#utility.yul\":9331:9349   */\n      dup1\n        /* \"#utility.yul\":9321:9402   */\n      tag_281\n      jumpi\n        /* \"#utility.yul\":9387:9391   */\n      0x7f\n        /* \"#utility.yul\":9379:9385   */\n      dup3\n        /* \"#utility.yul\":9375:9392   */\n      and\n        /* \"#utility.yul\":9365:9392   */\n      swap2\n      pop\n        /* \"#utility.yul\":9321:9402   */\n    tag_281:\n        /* \"#utility.yul\":9449:9451   */\n      0x20\n        /* \"#utility.yul\":9441:9447   */\n      dup3\n        /* \"#utility.yul\":9438:9452   */\n      lt\n        /* \"#utility.yul\":9418:9436   */\n      dup2\n        /* \"#utility.yul\":9415:9453   */\n      sub\n        /* \"#utility.yul\":9412:9496   */\n      tag_282\n      jumpi\n        /* \"#utility.yul\":9468:9486   */\n      tag_283\n      tag_176\n      jump\t// in\n    tag_283:\n        /* \"#utility.yul\":9412:9496   */\n    tag_282:\n        /* \"#utility.yul\":9233:9502   */\n      pop\n        /* \"#utility.yul\":9182:9502   */\n      swap2\n      swap1\n      pop\n      jump\t// out\n        /* \"#utility.yul\":9508:9688   */\n    tag_177:\n        /* \"#utility.yul\":9556:9633   */\n      0x4e487b7100000000000000000000000000000000000000000000000000000000\n        /* \"#utility.yul\":9553:9554   */\n      0x00\n        /* \"#utility.yul\":9546:9634   */\n      mstore\n        /* \"#utility.yul\":9653:9657   */\n      0x11\n        /* \"#utility.yul\":9650:9651   */\n      0x04\n        /* \"#utility.yul\":9643:9658   */\n      mstore\n        /* \"#utility.yul\":9677:9681   */\n      0x24\n        /* \"#utility.yul\":9674:9675   */\n      0x00\n        /* \"#utility.yul\":9667:9682   */\n      revert\n        /* \"#utility.yul\":9694:9796   */\n    tag_178:\n        /* \"#utility.yul\":9736:9744   */\n      0x00\n        /* \"#utility.yul\":9783:9788   */\n      dup2\n        /* \"#utility.yul\":9780:9781   */\n      0x01\n        /* \"#utility.yul\":9776:9789   */\n      shr\n        /* \"#utility.yul\":9755:9789   */\n      swap1\n      pop\n        /* \"#utility.yul\":9694:9796   */\n      swap2\n      swap1\n      pop\n      jump\t// out\n        /* \"#utility.yul\":9802:10650   */\n    tag_179:\n        /* \"#utility.yul\":9863:9868   */\n      0x00\n        /* \"#utility.yul\":9870:9874   */\n      dup1\n        /* \"#utility.yul\":9894:9900   */\n      dup3\n        /* \"#utility.yul\":9885:9900   */\n      swap2\n      pop\n        /* \"#utility.yul\":9918:9923   */\n      dup4\n        /* \"#utility.yul\":9909:9923   */\n      swap1\n      pop\n        /* \"#utility.yul\":9932:10644   */\n    tag_287:\n        /* \"#utility.yul\":9953:9954   */\n      0x01\n        /* \"#utility.yul\":9943:9951   */\n      dup6\n        /* \"#utility.yul\":9940:9955   */\n      gt\n        /* \"#utility.yul\":9932:10644   */\n      iszero\n      tag_289\n      jumpi\n        /* \"#utility.yul\":10048:10052   */\n      dup1\n        /* \"#utility.yul\":10043:10046   */\n      dup7\n        /* \"#utility.yul\":10039:10053   */\n      div\n        /* \"#utility.yul\":10033:10037   */\n      dup2\n        /* \"#utility.yul\":10030:10054   */\n      gt\n        /* \"#utility.yul\":10027:10077   */\n      iszero\n      tag_290\n      jumpi\n        /* \"#utility.yul\":10057:10075   */\n      tag_291\n      tag_177\n      jump\t// in\n    tag_291:\n        /* \"#utility.yul\":10027:10077   */\n    tag_290:\n        /* \"#utility.yul\":10107:10108   */\n      0x01\n        /* \"#utility.yul\":10097:10105   */\n      dup6\n        /* \"#utility.yul\":10093:10109   */\n      and\n        /* \"#utility.yul\":10090:10541   */\n      iszero\n      tag_292\n      jumpi\n        /* \"#utility.yul\":10522:10526   */\n      dup1\n        /* \"#utility.yul\":10515:10520   */\n      dup3\n        /* \"#utility.yul\":10511:10527   */\n      mul\n        /* \"#utility.yul\":10502:10527   */\n      swap2\n      pop\n        /* \"#utility.yul\":10090:10541   */\n    tag_292:\n        /* \"#utility.yul\":10572:10576   */\n      dup1\n        /* \"#utility.yul\":10566:10570   */\n      dup2\n        /* \"#utility.yul\":10562:10577   */\n      mul\n        /* \"#utility.yul\":10554:10577   */\n      swap1\n      pop\n        /* \"#utility.yul\":10602:10634   */\n      tag_293\n        /* \"#utility.yul\":10625:10633   */\n      dup6\n        /* \"#utility.yul\":10602:10634   */\n      tag_178\n      jump\t// in\n    tag_293:\n        /* \"#utility.yul\":10590:10634   */\n      swap5\n      pop\n        /* \"#utility.yul\":9932:10644   */\n      jump(tag_287)\n    tag_289:\n        /* \"#utility.yul\":9802:10650   */\n      swap5\n      pop\n      swap5\n      swap3\n      pop\n      pop\n      pop\n      jump\t// out\n        /* \"#utility.yul\":10656:11729   */\n    tag_180:\n        /* \"#utility.yul\":10710:10715   */\n      0x00\n        /* \"#utility.yul\":10901:10909   */\n      dup3\n        /* \"#utility.yul\":10891:10931   */\n      tag_295\n      jumpi\n        /* \"#utility.yul\":10922:10923   */\n      0x01\n        /* \"#utility.yul\":10913:10923   */\n      swap1\n      pop\n        /* \"#utility.yul\":10924:10929   */\n      jump(tag_294)\n        /* \"#utility.yul\":10891:10931   */\n    tag_295:\n        /* \"#utility.yul\":10950:10954   */\n      dup2\n        /* \"#utility.yul\":10940:10976   */\n      tag_296\n      jumpi\n        /* \"#utility.yul\":10967:10968   */\n      0x00\n        /* \"#utility.yul\":10958:10968   */\n      swap1\n      pop\n        /* \"#utility.yul\":10969:10974   */\n      jump(tag_294)\n        /* \"#utility.yul\":10940:10976   */\n    tag_296:\n        /* \"#utility.yul\":11036:11040   */\n      dup2\n        /* \"#utility.yul\":11084:11085   */\n      0x01\n        /* \"#utility.yul\":11079:11106   */\n      dup2\n      eq\n      tag_298\n      jumpi\n        /* \"#utility.yul\":11120:11121   */\n      0x02\n        /* \"#utility.yul\":11115:11306   */\n      dup2\n      eq\n      tag_299\n      jumpi\n        /* \"#utility.yul\":11029:11306   */\n      jump(tag_297)\n        /* \"#utility.yul\":11079:11106   */\n    tag_298:\n        /* \"#utility.yul\":11097:11098   */\n      0x01\n        /* \"#utility.yul\":11088:11098   */\n      swap2\n      pop\n        /* \"#utility.yul\":11099:11104   */\n      pop\n      jump(tag_294)\n        /* \"#utility.yul\":11115:11306   */\n    tag_299:\n        /* \"#utility.yul\":11160:11163   */\n      0xff\n        /* \"#utility.yul\":11150:11158   */\n      dup5\n        /* \"#utility.yul\":11147:11164   */\n      gt\n        /* \"#utility.yul\":11144:11187   */\n      iszero\n      tag_300\n      jumpi\n        /* \"#utility.yul\":11167:11185   */\n      tag_301\n      tag_177\n      jump\t// in\n    tag_301:\n        /* \"#utility.yul\":11144:11187   */\n    tag_300:\n        /* \"#utility.yul\":11216:11224   */\n      dup4\n        /* \"#utility.yul\":11213:11214   */\n      0x02\n        /* \"#utility.yul\":11209:11225   */\n      exp\n        /* \"#utility.yul\":11200:11225   */\n      swap2\n      pop\n        /* \"#utility.yul\":11251:11254   */\n      dup5\n        /* \"#utility.yul\":11244:11249   */\n      dup3\n        /* \"#utility.yul\":11241:11255   */\n      gt\n        /* \"#utility.yul\":11238:11278   */\n      iszero\n      tag_302\n      jumpi\n        /* \"#utility.yul\":11258:11276   */\n      tag_303\n      tag_177\n      jump\t// in\n    tag_303:\n        /* \"#utility.yul\":11238:11278   */\n    tag_302:\n        /* \"#utility.yul\":11291:11296   */\n      pop\n      jump(tag_294)\n        /* \"#utility.yul\":11029:11306   */\n    tag_297:\n      pop\n        /* \"#utility.yul\":11415:11417   */\n      0x20\n        /* \"#utility.yul\":11405:11413   */\n      dup4\n        /* \"#utility.yul\":11402:11418   */\n      lt\n        /* \"#utility.yul\":11396:11399   */\n      0x0133\n        /* \"#utility.yul\":11390:11394   */\n      dup4\n        /* \"#utility.yul\":11387:11400   */\n      lt\n        /* \"#utility.yul\":11383:11419   */\n      and\n        /* \"#utility.yul\":11365:11367   */\n      0x4e\n        /* \"#utility.yul\":11355:11363   */\n      dup5\n        /* \"#utility.yul\":11352:11368   */\n      lt\n        /* \"#utility.yul\":11347:11349   */\n      0x0b\n        /* \"#utility.yul\":11341:11345   */\n      dup5\n        /* \"#utility.yul\":11338:11350   */\n      lt\n        /* \"#utility.yul\":11334:11369   */\n      and\n        /* \"#utility.yul\":11318:11429   */\n      or\n        /* \"#utility.yul\":11315:11561   */\n      iszero\n      tag_304\n      jumpi\n        /* \"#utility.yul\":11471:11479   */\n      dup3\n        /* \"#utility.yul\":11465:11469   */\n      dup3\n        /* \"#utility.yul\":11461:11480   */\n      exp\n        /* \"#utility.yul\":11452:11480   */\n      swap1\n      pop\n        /* \"#utility.yul\":11506:11509   */\n      dup4\n        /* \"#utility.yul\":11499:11504   */\n      dup2\n        /* \"#utility.yul\":11496:11510   */\n      gt\n        /* \"#utility.yul\":11493:11533   */\n      iszero\n      tag_305\n      jumpi\n        /* \"#utility.yul\":11513:11531   */\n      tag_306\n      tag_177\n      jump\t// in\n    tag_306:\n        /* \"#utility.yul\":11493:11533   */\n    tag_305:\n        /* \"#utility.yul\":11546:11551   */\n      jump(tag_294)\n        /* \"#utility.yul\":11315:11561   */\n    tag_304:\n        /* \"#utility.yul\":11586:11628   */\n      tag_307\n        /* \"#utility.yul\":11624:11627   */\n      dup5\n        /* \"#utility.yul\":11614:11622   */\n      dup5\n        /* \"#utility.yul\":11608:11612   */\n      dup5\n        /* \"#utility.yul\":11605:11606   */\n      0x01\n        /* \"#utility.yul\":11586:11628   */\n      tag_179\n      jump\t// in\n    tag_307:\n        /* \"#utility.yul\":11571:11628   */\n      swap3\n      pop\n      swap1\n      pop\n        /* \"#utility.yul\":11660:11664   */\n      dup2\n        /* \"#utility.yul\":11655:11658   */\n      dup5\n        /* \"#utility.yul\":11651:11665   */\n      div\n        /* \"#utility.yul\":11644:11649   */\n      dup2\n        /* \"#utility.yul\":11641:11666   */\n      gt\n        /* \"#utility.yul\":11638:11689   */\n      iszero\n      tag_308\n      jumpi\n        /* \"#utility.yul\":11669:11687   */\n      tag_309\n      tag_177\n      jump\t// in\n    tag_309:\n        /* \"#utility.yul\":11638:11689   */\n    tag_308:\n        /* \"#utility.yul\":11718:11722   */\n      dup2\n        /* \"#utility.yul\":11711:11716   */\n      dup2\n        /* \"#utility.yul\":11707:11723   */\n      mul\n        /* \"#utility.yul\":11698:11723   */\n      swap1\n      pop\n        /* \"#utility.yul\":10656:11729   */\n    tag_294:\n      swap4\n      swap3\n      pop\n      pop\n      pop\n      jump\t// out\n        /* \"#utility.yul\":11735:12020   */\n    tag_132:\n        /* \"#utility.yul\":11795:11800   */\n      0x00\n        /* \"#utility.yul\":11819:11842   */\n      tag_311\n        /* \"#utility.yul\":11837:11841   */\n      dup3\n        /* \"#utility.yul\":11819:11842   */\n      tag_148\n      jump\t// in\n    tag_311:\n        /* \"#utility.yul\":11811:11842   */\n      swap2\n      pop\n        /* \"#utility.yul\":11863:11890   */\n      tag_312\n        /* \"#utility.yul\":11881:11889   */\n      dup4\n        /* \"#utility.yul\":11863:11890   */\n      tag_148\n      jump\t// in\n    tag_312:\n        /* \"#utility.yul\":11851:11890   */\n      swap3\n      pop\n        /* \"#utility.yul\":11909:12013   */\n      tag_313\n        /* \"#utility.yul\":11946:12012   */\n      0xffffffffffffffffffffffffffffffffffffffffffffffffffffffffffffffff\n        /* \"#utility.yul\":11936:11944   */\n      dup5\n        /* \"#utility.yul\":11930:11934   */\n      dup5\n        /* \"#utility.yul\":11909:12013   */\n      tag_180\n      jump\t// in\n    tag_313:\n        /* \"#utility.yul\":11900:12013   */\n      swap1\n      pop\n        /* \"#utility.yul\":11735:12020   */\n      swap3\n      swap2\n      pop\n      pop\n      jump\t// out\n        /* \"#utility.yul\":12026:12436   */\n    tag_134:\n        /* \"#utility.yul\":12066:12073   */\n      0x00\n        /* \"#utility.yul\":12089:12109   */\n      tag_315\n        /* \"#utility.yul\":12107:12108   */\n      dup3\n        /* \"#utility.yul\":12089:12109   */\n      tag_148\n      jump\t// in\n    tag_315:\n        /* \"#utility.yul\":12084:12109   */\n      swap2\n      pop\n        /* \"#utility.yul\":12123:12143   */\n      tag_316\n        /* \"#utility.yul\":12141:12142   */\n      dup4\n        /* \"#utility.yul\":12123:12143   */\n      tag_148\n      jump\t// in\n    tag_316:\n        /* \"#utility.yul\":12118:12143   */\n      swap3\n      pop\n        /* \"#utility.yul\":12178:12179   */\n      dup3\n        /* \"#utility.yul\":12175:12176   */\n      dup3\n        /* \"#utility.yul\":12171:12180   */\n      mul\n        /* \"#utility.yul\":12200:12230   */\n      tag_317\n        /* \"#utility.yul\":12218:12229   */\n      dup2\n        /* \"#utility.yul\":12200:12230   */\n      tag_148\n      jump\t// in\n    tag_317:\n        /* \"#utility.yul\":12189:12230   */\n      swap2\n      pop\n        /* \"#utility.yul\":12379:12380   */\n      dup3\n        /* \"#utility.yul\":12370:12377   */\n      dup3\n        /* \"#utility.yul\":12366:12381   */\n      div\n        /* \"#utility.yul\":12363:12364   */\n      dup5\n        /* \"#utility.yul\":12360:12382   */\n      eq\n        /* \"#utility.yul\":12340:12341   */\n      dup4\n        /* \"#utility.yul\":12333:12342   */\n      iszero\n        /* \"#utility.yul\":12313:12396   */\n      or\n        /* \"#utility.yul\":12290:12429   */\n      tag_318\n      jumpi\n        /* \"#utility.yul\":12409:12427   */\n      tag_319\n      tag_177\n      jump\t// in\n    tag_319:\n        /* \"#utility.yul\":12290:12429   */\n    tag_318:\n        /* \"#utility.yul\":12074:12436   */\n      pop\n        /* \"#utility.yul\":12026:12436   */\n      swap3\n      swap2\n      pop\n      pop\n      jump\t// out\n\n    auxdata: 0xa2646970667358221220b80b3946fd02091bd9a2062a2101b5360c55f2d28c7aabe8b593dc2f0aa423ff64736f6c63430008140033\n}\n",
				"bytecode": {
					"linkReferences": {},
					"object": "60806040527fffffffffffffffffffffffffffffffffffffffffffffffffffffffffffffffff600055600180557fffffffffffffffffffffffffffffffffffffffffffffffffffffffffffffffff600260006101000a81548160ff021916908360000b60ff1602179055506001600260016101000a81548160ff021916908360ff16021790555060016002806101000a81548160ff02191690831515021790555073dcad3a6d3569df655070ded06cb7a1b2ccd1d3af600260036101000a81548173ffffffffffffffffffffffffffffffffffffffff021916908373ffffffffffffffffffffffffffffffffffffffff1602179055507f48656c6c6f20576f726c642100000000000000000000000000000000000000006003556040518060a00160405280600160ff168152602001600260ff168152602001600360ff168152602001600460ff168152602001600560ff16815250600490600562000166929190620002f0565b50600567ffffffffffffffff811115620001855762000184620003ab565b5b604051908082528060200260200182016040528015620001b45781602001602082028036833780820191505090505b5060099080519060200190620001cc9291906200033a565b506040518060400160405280600c81526020017f48656c6c6f20576f726c64210000000000000000000000000000000000000000815250600a908162000213919062000625565b503480156200022157600080fd5b50600160096000815481106200023c576200023b6200070c565b5b9060005260206000200181905550600260096001815481106200026457620002636200070c565b5b9060005260206000200181905550600360096002815481106200028c576200028b6200070c565b5b906000526020600020018190555060046009600381548110620002b457620002b36200070c565b5b906000526020600020018190555060056009600481548110620002dc57620002db6200070c565b5b90600052602060002001819055506200073b565b826005810192821562000327579160200282015b8281111562000326578251829060ff1690559160200191906001019062000304565b5b5090506200033691906200038c565b5090565b82805482825590600052602060002090810192821562000379579160200282015b82811115620003785782518255916020019190600101906200035b565b5b5090506200038891906200038c565b5090565b5b80821115620003a75760008160009055506001016200038d565b5090565b7f4e487b7100000000000000000000000000000000000000000000000000000000600052604160045260246000fd5b600081519050919050565b7f4e487b7100000000000000000000000000000000000000000000000000000000600052602260045260246000fd5b600060028204905060018216806200042d57607f821691505b602082108103620004435762000442620003e5565b5b50919050565b60008190508160005260206000209050919050565b60006020601f8301049050919050565b600082821b905092915050565b600060088302620004ad7fffffffffffffffffffffffffffffffffffffffffffffffffffffffffffffffff826200046e565b620004b986836200046e565b95508019841693508086168417925050509392505050565b6000819050919050565b6000819050919050565b60006200050662000500620004fa84620004d1565b620004db565b620004d1565b9050919050565b6000819050919050565b6200052283620004e5565b6200053a62000531826200050d565b8484546200047b565b825550505050565b600090565b6200055162000542565b6200055e81848462000517565b505050565b5b8181101562000586576200057a60008262000547565b60018101905062000564565b5050565b601f821115620005d5576200059f8162000449565b620005aa846200045e565b81016020851015620005ba578190505b620005d2620005c9856200045e565b83018262000563565b50505b505050565b600082821c905092915050565b6000620005fa60001984600802620005da565b1980831691505092915050565b6000620006158383620005e7565b9150826002028217905092915050565b6200063082620003da565b67ffffffffffffffff8111156200064c576200064b620003ab565b5b62000658825462000414565b620006658282856200058a565b600060209050601f8311600181146200069d576000841562000688578287015190505b62000694858262000607565b86555062000704565b601f198416620006ad8662000449565b60005b82811015620006d757848901518255600182019150602085019450602081019050620006b0565b86831015620006f75784890151620006f3601f891682620005e7565b8355505b6001600288020188555050505b505050505050565b7f4e487b7100000000000000000000000000000000000000000000000000000000600052603260045260246000fd5b610dce806200074b6000396000f3fe608060405234801561001057600080fd5b50600436106101375760003560e01c80637dc93929116100b857806393af578d1161007c57806393af578d14610322578063958be69614610340578063aaef20ea1461035e578063c41b55301461037c578063e1d16b831461039a578063f5b53e17146103b857610137565b80637dc939291461027a578063860495981461029857806387a26673146102c857806389ea642f146102e65780639032f58c1461030457610137565b8063454ef146116100ff578063454ef146146101e457806357cb2fc4146102025780636498db8814610220578063688959791461023e5780636baaa2e41461025c57610137565b806312a7b9141461013c5780631f9030371461015a578063343a875d14610178578063355ef27d1461019657806338cc4831146101c6575b600080fd5b6101446103d6565b6040516101519190610739565b60405180910390f35b6101626103eb565b60405161016f919061076d565b60405180910390f35b6101806103f5565b60405161018d91906107a4565b60405180910390f35b6101b060048036038101906101ab91906107fa565b61040c565b6040516101bd9190610836565b60405180910390f35b6101ce610427565b6040516101db9190610892565b60405180910390f35b6101ec610451565b6040516101f991906108c9565b60405180910390f35b61020a610464565b60405161021791906108c9565b60405180910390f35b61022861047b565b6040516102359190610836565b60405180910390f35b610246610481565b6040516102539190610836565b60405180910390f35b61026461048b565b604051610271919061076d565b60405180910390f35b610282610491565b60405161028f9190610974565b60405180910390f35b6102b260048036038101906102ad91906107fa565b61051f565b6040516102bf9190610836565b60405180910390f35b6102d0610543565b6040516102dd91906109af565b60405180910390f35b6102ee610549565b6040516102fb9190610974565b60405180910390f35b61030c6105db565b6040516103199190610a75565b60405180910390f35b61032a610626565b6040516103379190610739565b60405180910390f35b610348610637565b6040516103559190610836565b60405180910390f35b610366610662565b60405161037391906107a4565b60405180910390f35b610384610675565b6040516103919190610b27565b60405180910390f35b6103a26106cd565b6040516103af9190610892565b60405180910390f35b6103c06106f3565b6040516103cd91906109af565b60405180910390f35b600060028054906101000a900460ff16905090565b6000600354905090565b6000600260019054906101000a900460ff16905090565b6004816005811061041c57600080fd5b016000915090505481565b6000600260039054906101000a900473ffffffffffffffffffffffffffffffffffffffff16905090565b600260009054906101000a900460000b81565b6000600260009054906101000a900460000b905090565b60015481565b6000600154905090565b60035481565b600a805461049e90610b78565b80601f01602080910402602001604051908101604052809291908181526020018280546104ca90610b78565b80156105175780601f106104ec57610100808354040283529160200191610517565b820191906000526020600020905b8154815290600101906020018083116104fa57829003601f168201915b505050505081565b6009818154811061052f57600080fd5b906000526020600020016000915090505481565b60005481565b6060600a805461055890610b78565b80601f016020809104026020016040519081016040528092919081815260200182805461058490610b78565b80156105d15780601f106105a6576101008083540402835291602001916105d1565b820191906000526020600020905b8154815290600101906020018083116105b457829003601f168201915b5050505050905090565b6105e36106fc565b600460058060200260405190810160405280929190826005801561061c576020028201915b815481526020019060010190808311610608575b5050505050905090565b60028054906101000a900460ff1681565b600080600190506000600290508081836106519190610d0b565b61065b9190610d56565b9250505090565b600260019054906101000a900460ff1681565b606060098054806020026020016040519081016040528092919081815260200182805480156106c357602002820191906000526020600020905b8154815260200190600101908083116106af575b5050505050905090565b600260039054906101000a900473ffffffffffffffffffffffffffffffffffffffff1681565b60008054905090565b6040518060a00160405280600590602082028036833780820191505090505090565b60008115159050919050565b6107338161071e565b82525050565b600060208201905061074e600083018461072a565b92915050565b6000819050919050565b61076781610754565b82525050565b6000602082019050610782600083018461075e565b92915050565b600060ff82169050919050565b61079e81610788565b82525050565b60006020820190506107b96000830184610795565b92915050565b600080fd5b6000819050919050565b6107d7816107c4565b81146107e257600080fd5b50565b6000813590506107f4816107ce565b92915050565b6000602082840312156108105761080f6107bf565b5b600061081e848285016107e5565b91505092915050565b610830816107c4565b82525050565b600060208201905061084b6000830184610827565b92915050565b600073ffffffffffffffffffffffffffffffffffffffff82169050919050565b600061087c82610851565b9050919050565b61088c81610871565b82525050565b60006020820190506108a76000830184610883565b92915050565b60008160000b9050919050565b6108c3816108ad565b82525050565b60006020820190506108de60008301846108ba565b92915050565b600081519050919050565b600082825260208201905092915050565b60005b8381101561091e578082015181840152602081019050610903565b60008484015250505050565b6000601f19601f8301169050919050565b6000610946826108e4565b61095081856108ef565b9350610960818560208601610900565b6109698161092a565b840191505092915050565b6000602082019050818103600083015261098e818461093b565b905092915050565b6000819050919050565b6109a981610996565b82525050565b60006020820190506109c460008301846109a0565b92915050565b600060059050919050565b600081905092915050565b6000819050919050565b6109f3816107c4565b82525050565b6000610a0583836109ea565b60208301905092915050565b6000602082019050919050565b610a27816109ca565b610a3181846109d5565b9250610a3c826109e0565b8060005b83811015610a6d578151610a5487826109f9565b9650610a5f83610a11565b925050600181019050610a40565b505050505050565b600060a082019050610a8a6000830184610a1e565b92915050565b600081519050919050565b600082825260208201905092915050565b6000819050602082019050919050565b6000602082019050919050565b6000610ad482610a90565b610ade8185610a9b565b9350610ae983610aac565b8060005b83811015610b1a578151610b0188826109f9565b9750610b0c83610abc565b925050600181019050610aed565b5085935050505092915050565b60006020820190508181036000830152610b418184610ac9565b905092915050565b7f4e487b7100000000000000000000000000000000000000000000000000000000600052602260045260246000fd5b60006002820490506001821680610b9057607f821691505b602082108103610ba357610ba2610b49565b5b50919050565b7f4e487b7100000000000000000000000000000000000000000000000000000000600052601160045260246000fd5b60008160011c9050919050565b6000808291508390505b6001851115610c2f57808604811115610c0b57610c0a610ba9565b5b6001851615610c1a5780820291505b8081029050610c2885610bd8565b9450610bef565b94509492505050565b600082610c485760019050610d04565b81610c565760009050610d04565b8160018114610c6c5760028114610c7657610ca5565b6001915050610d04565b60ff841115610c8857610c87610ba9565b5b8360020a915084821115610c9f57610c9e610ba9565b5b50610d04565b5060208310610133831016604e8410600b8410161715610cda5782820a905083811115610cd557610cd4610ba9565b5b610d04565b610ce78484846001610be5565b92509050818404811115610cfe57610cfd610ba9565b5b81810290505b9392505050565b6000610d16826107c4565b9150610d21836107c4565b9250610d4e7fffffffffffffffffffffffffffffffffffffffffffffffffffffffffffffffff8484610c38565b905092915050565b6000610d61826107c4565b9150610d6c836107c4565b9250828202610d7a816107c4565b91508282048414831517610d9157610d90610ba9565b5b509291505056fea2646970667358221220b80b3946fd02091bd9a2062a2101b5360c55f2d28c7aabe8b593dc2f0aa423ff64736f6c63430008140033",
					"opcodes": "PUSH1 0x80 PUSH1 0x40 MSTORE PUSH32 0xFFFFFFFFFFFFFFFFFFFFFFFFFFFFFFFFFFFFFFFFFFFFFFFFFFFFFFFFFFFFFFFF PUSH1 0x0 SSTORE PUSH1 0x1 DUP1 SSTORE PUSH32 0xFFFFFFFFFFFFFFFFFFFFFFFFFFFFFFFFFFFFFFFFFFFFFFFFFFFFFFFFFFFFFFFF PUSH1 0x2 PUSH1 0x0 PUSH2 0x100 EXP DUP2 SLOAD DUP2 PUSH1 0xFF MUL NOT AND SWAP1 DUP4 PUSH1 0x0 SIGNEXTEND PUSH1 0xFF AND MUL OR SWAP1 SSTORE POP PUSH1 0x1 PUSH1 0x2 PUSH1 0x1 PUSH2 0x100 EXP DUP2 SLOAD DUP2 PUSH1 0xFF MUL NOT AND SWAP1 DUP4 PUSH1 0xFF AND MUL OR SWAP1 SSTORE POP PUSH1 0x1 PUSH1 0x2 DUP1 PUSH2 0x100 EXP DUP2 SLOAD DUP2 PUSH1 0xFF MUL NOT AND SWAP1 DUP4 ISZERO ISZERO MUL OR SWAP1 SSTORE POP PUSH20 0xDCAD3A6D3569DF655070DED06CB7A1B2CCD1D3AF PUSH1 0x2 PUSH1 0x3 PUSH2 0x100 EXP DUP2 SLOAD DUP2 PUSH20 0xFFFFFFFFFFFFFFFFFFFFFFFFFFFFFFFFFFFFFFFF MUL NOT AND SWAP1 DUP4 PUSH20 0xFFFFFFFFFFFFFFFFFFFFFFFFFFFFFFFFFFFFFFFF AND MUL OR SWAP1 SSTORE POP PUSH32 0x48656C6C6F20576F726C64210000000000000000000000000000000000000000 PUSH1 0x3 SSTORE PUSH1 0x40 MLOAD DUP1 PUSH1 0xA0 ADD PUSH1 0x40 MSTORE DUP1 PUSH1 0x1 PUSH1 0xFF AND DUP2 MSTORE PUSH1 0x20 ADD PUSH1 0x2 PUSH1 0xFF AND DUP2 MSTORE PUSH1 0x20 ADD PUSH1 0x3 PUSH1 0xFF AND DUP2 MSTORE PUSH1 0x20 ADD PUSH1 0x4 PUSH1 0xFF AND DUP2 MSTORE PUSH1 0x20 ADD PUSH1 0x5 PUSH1 0xFF AND DUP2 MSTORE POP PUSH1 0x4 SWAP1 PUSH1 0x5 PUSH3 0x166 SWAP3 SWAP2 SWAP1 PUSH3 0x2F0 JUMP JUMPDEST POP PUSH1 0x5 PUSH8 0xFFFFFFFFFFFFFFFF DUP2 GT ISZERO PUSH3 0x185 JUMPI PUSH3 0x184 PUSH3 0x3AB JUMP JUMPDEST JUMPDEST PUSH1 0x40 MLOAD SWAP1 DUP1 DUP3 MSTORE DUP1 PUSH1 0x20 MUL PUSH1 0x20 ADD DUP3 ADD PUSH1 0x40 MSTORE DUP1 ISZERO PUSH3 0x1B4 JUMPI DUP2 PUSH1 0x20 ADD PUSH1 0x20 DUP3 MUL DUP1 CALLDATASIZE DUP4 CALLDATACOPY DUP1 DUP3 ADD SWAP2 POP POP SWAP1 POP JUMPDEST POP PUSH1 0x9 SWAP1 DUP1 MLOAD SWAP1 PUSH1 0x20 ADD SWAP1 PUSH3 0x1CC SWAP3 SWAP2 SWAP1 PUSH3 0x33A JUMP JUMPDEST POP PUSH1 0x40 MLOAD DUP1 PUSH1 0x40 ADD PUSH1 0x40 MSTORE DUP1 PUSH1 0xC DUP2 MSTORE PUSH1 0x20 ADD PUSH32 0x48656C6C6F20576F726C64210000000000000000000000000000000000000000 DUP2 MSTORE POP PUSH1 0xA SWAP1 DUP2 PUSH3 0x213 SWAP2 SWAP1 PUSH3 0x625 JUMP JUMPDEST POP CALLVALUE DUP1 ISZERO PUSH3 0x221 JUMPI PUSH1 0x0 DUP1 REVERT JUMPDEST POP PUSH1 0x1 PUSH1 0x9 PUSH1 0x0 DUP2 SLOAD DUP2 LT PUSH3 0x23C JUMPI PUSH3 0x23B PUSH3 0x70C JUMP JUMPDEST JUMPDEST SWAP1 PUSH1 0x0 MSTORE PUSH1 0x20 PUSH1 0x0 KECCAK256 ADD DUP2 SWAP1 SSTORE POP PUSH1 0x2 PUSH1 0x9 PUSH1 0x1 DUP2 SLOAD DUP2 LT PUSH3 0x264 JUMPI PUSH3 0x263 PUSH3 0x70C JUMP JUMPDEST JUMPDEST SWAP1 PUSH1 0x0 MSTORE PUSH1 0x20 PUSH1 0x0 KECCAK256 ADD DUP2 SWAP1 SSTORE POP PUSH1 0x3 PUSH1 0x9 PUSH1 0x2 DUP2 SLOAD DUP2 LT PUSH3 0x28C JUMPI PUSH3 0x28B PUSH3 0x70C JUMP JUMPDEST JUMPDEST SWAP1 PUSH1 0x0 MSTORE PUSH1 0x20 PUSH1 0x0 KECCAK256 ADD DUP2 SWAP1 SSTORE POP PUSH1 0x4 PUSH1 0x9 PUSH1 0x3 DUP2 SLOAD DUP2 LT PUSH3 0x2B4 JUMPI PUSH3 0x2B3 PUSH3 0x70C JUMP JUMPDEST JUMPDEST SWAP1 PUSH1 0x0 MSTORE PUSH1 0x20 PUSH1 0x0 KECCAK256 ADD DUP2 SWAP1 SSTORE POP PUSH1 0x5 PUSH1 0x9 PUSH1 0x4 DUP2 SLOAD DUP2 LT PUSH3 0x2DC JUMPI PUSH3 0x2DB PUSH3 0x70C JUMP JUMPDEST JUMPDEST SWAP1 PUSH1 0x0 MSTORE PUSH1 0x20 PUSH1 0x0 KECCAK256 ADD DUP2 SWAP1 SSTORE POP PUSH3 0x73B JUMP JUMPDEST DUP3 PUSH1 0x5 DUP2 ADD SWAP3 DUP3 ISZERO PUSH3 0x327 JUMPI SWAP2 PUSH1 0x20 MUL DUP3 ADD JUMPDEST DUP3 DUP2 GT ISZERO PUSH3 0x326 JUMPI DUP3 MLOAD DUP3 SWAP1 PUSH1 0xFF AND SWAP1 SSTORE SWAP2 PUSH1 0x20 ADD SWAP2 SWAP1 PUSH1 0x1 ADD SWAP1 PUSH3 0x304 JUMP JUMPDEST JUMPDEST POP SWAP1 POP PUSH3 0x336 SWAP2 SWAP1 PUSH3 0x38C JUMP JUMPDEST POP SWAP1 JUMP JUMPDEST DUP3 DUP1 SLOAD DUP3 DUP3 SSTORE SWAP1 PUSH1 0x0 MSTORE PUSH1 0x20 PUSH1 0x0 KECCAK256 SWAP1 DUP2 ADD SWAP3 DUP3 ISZERO PUSH3 0x379 JUMPI SWAP2 PUSH1 0x20 MUL DUP3 ADD JUMPDEST DUP3 DUP2 GT ISZERO PUSH3 0x378 JUMPI DUP3 MLOAD DUP3 SSTORE SWAP2 PUSH1 0x20 ADD SWAP2 SWAP1 PUSH1 0x1 ADD SWAP1 PUSH3 0x35B JUMP JUMPDEST JUMPDEST POP SWAP1 POP PUSH3 0x388 SWAP2 SWAP1 PUSH3 0x38C JUMP JUMPDEST POP SWAP1 JUMP JUMPDEST JUMPDEST DUP1 DUP3 GT ISZERO PUSH3 0x3A7 JUMPI PUSH1 0x0 DUP2 PUSH1 0x0 SWAP1 SSTORE POP PUSH1 0x1 ADD PUSH3 0x38D JUMP JUMPDEST POP SWAP1 JUMP JUMPDEST PUSH32 0x4E487B7100000000000000000000000000000000000000000000000000000000 PUSH1 0x0 MSTORE PUSH1 0x41 PUSH1 0x4 MSTORE PUSH1 0x24 PUSH1 0x0 REVERT JUMPDEST PUSH1 0x0 DUP2 MLOAD SWAP1 POP SWAP2 SWAP1 POP JUMP JUMPDEST PUSH32 0x4E487B7100000000000000000000000000000000000000000000000000000000 PUSH1 0x0 MSTORE PUSH1 0x22 PUSH1 0x4 MSTORE PUSH1 0x24 PUSH1 0x0 REVERT JUMPDEST PUSH1 0x0 PUSH1 0x2 DUP3 DIV SWAP1 POP PUSH1 0x1 DUP3 AND DUP1 PUSH3 0x42D JUMPI PUSH1 0x7F DUP3 AND SWAP2 POP JUMPDEST PUSH1 0x20 DUP3 LT DUP2 SUB PUSH3 0x443 JUMPI PUSH3 0x442 PUSH3 0x3E5 JUMP JUMPDEST JUMPDEST POP SWAP2 SWAP1 POP JUMP JUMPDEST PUSH1 0x0 DUP2 SWAP1 POP DUP2 PUSH1 0x0 MSTORE PUSH1 0x20 PUSH1 0x0 KECCAK256 SWAP1 POP SWAP2 SWAP1 POP JUMP JUMPDEST PUSH1 0x0 PUSH1 0x20 PUSH1 0x1F DUP4 ADD DIV SWAP1 POP SWAP2 SWAP1 POP JUMP JUMPDEST PUSH1 0x0 DUP3 DUP3 SHL SWAP1 POP SWAP3 SWAP2 POP POP JUMP JUMPDEST PUSH1 0x0 PUSH1 0x8 DUP4 MUL PUSH3 0x4AD PUSH32 0xFFFFFFFFFFFFFFFFFFFFFFFFFFFFFFFFFFFFFFFFFFFFFFFFFFFFFFFFFFFFFFFF DUP3 PUSH3 0x46E JUMP JUMPDEST PUSH3 0x4B9 DUP7 DUP4 PUSH3 0x46E JUMP JUMPDEST SWAP6 POP DUP1 NOT DUP5 AND SWAP4 POP DUP1 DUP7 AND DUP5 OR SWAP3 POP POP POP SWAP4 SWAP3 POP POP POP JUMP JUMPDEST PUSH1 0x0 DUP2 SWAP1 POP SWAP2 SWAP1 POP JUMP JUMPDEST PUSH1 0x0 DUP2 SWAP1 POP SWAP2 SWAP1 POP JUMP JUMPDEST PUSH1 0x0 PUSH3 0x506 PUSH3 0x500 PUSH3 0x4FA DUP5 PUSH3 0x4D1 JUMP JUMPDEST PUSH3 0x4DB JUMP JUMPDEST PUSH3 0x4D1 JUMP JUMPDEST SWAP1 POP SWAP2 SWAP1 POP JUMP JUMPDEST PUSH1 0x0 DUP2 SWAP1 POP SWAP2 SWAP1 POP JUMP JUMPDEST PUSH3 0x522 DUP4 PUSH3 0x4E5 JUMP JUMPDEST PUSH3 0x53A PUSH3 0x531 DUP3 PUSH3 0x50D JUMP JUMPDEST DUP5 DUP5 SLOAD PUSH3 0x47B JUMP JUMPDEST DUP3 SSTORE POP POP POP POP JUMP JUMPDEST PUSH1 0x0 SWAP1 JUMP JUMPDEST PUSH3 0x551 PUSH3 0x542 JUMP JUMPDEST PUSH3 0x55E DUP2 DUP5 DUP5 PUSH3 0x517 JUMP JUMPDEST POP POP POP JUMP JUMPDEST JUMPDEST DUP2 DUP2 LT ISZERO PUSH3 0x586 JUMPI PUSH3 0x57A PUSH1 0x0 DUP3 PUSH3 0x547 JUMP JUMPDEST PUSH1 0x1 DUP2 ADD SWAP1 POP PUSH3 0x564 JUMP JUMPDEST POP POP JUMP JUMPDEST PUSH1 0x1F DUP3 GT ISZERO PUSH3 0x5D5 JUMPI PUSH3 0x59F DUP2 PUSH3 0x449 JUMP JUMPDEST PUSH3 0x5AA DUP5 PUSH3 0x45E JUMP JUMPDEST DUP2 ADD PUSH1 0x20 DUP6 LT ISZERO PUSH3 0x5BA JUMPI DUP2 SWAP1 POP JUMPDEST PUSH3 0x5D2 PUSH3 0x5C9 DUP6 PUSH3 0x45E JUMP JUMPDEST DUP4 ADD DUP3 PUSH3 0x563 JUMP JUMPDEST POP POP JUMPDEST POP POP POP JUMP JUMPDEST PUSH1 0x0 DUP3 DUP3 SHR SWAP1 POP SWAP3 SWAP2 POP POP JUMP JUMPDEST PUSH1 0x0 PUSH3 0x5FA PUSH1 0x0 NOT DUP5 PUSH1 0x8 MUL PUSH3 0x5DA JUMP JUMPDEST NOT DUP1 DUP4 AND SWAP2 POP POP SWAP3 SWAP2 POP POP JUMP JUMPDEST PUSH1 0x0 PUSH3 0x615 DUP4 DUP4 PUSH3 0x5E7 JUMP JUMPDEST SWAP2 POP DUP3 PUSH1 0x2 MUL DUP3 OR SWAP1 POP SWAP3 SWAP2 POP POP JUMP JUMPDEST PUSH3 0x630 DUP3 PUSH3 0x3DA JUMP JUMPDEST PUSH8 0xFFFFFFFFFFFFFFFF DUP2 GT ISZERO PUSH3 0x64C JUMPI PUSH3 0x64B PUSH3 0x3AB JUMP JUMPDEST JUMPDEST PUSH3 0x658 DUP3 SLOAD PUSH3 0x414 JUMP JUMPDEST PUSH3 0x665 DUP3 DUP3 DUP6 PUSH3 0x58A JUMP JUMPDEST PUSH1 0x0 PUSH1 0x20 SWAP1 POP PUSH1 0x1F DUP4 GT PUSH1 0x1 DUP2 EQ PUSH3 0x69D JUMPI PUSH1 0x0 DUP5 ISZERO PUSH3 0x688 JUMPI DUP3 DUP8 ADD MLOAD SWAP1 POP JUMPDEST PUSH3 0x694 DUP6 DUP3 PUSH3 0x607 JUMP JUMPDEST DUP7 SSTORE POP PUSH3 0x704 JUMP JUMPDEST PUSH1 0x1F NOT DUP5 AND PUSH3 0x6AD DUP7 PUSH3 0x449 JUMP JUMPDEST PUSH1 0x0 JUMPDEST DUP3 DUP2 LT ISZERO PUSH3 0x6D7 JUMPI DUP5 DUP10 ADD MLOAD DUP3 SSTORE PUSH1 0x1 DUP3 ADD SWAP2 POP PUSH1 0x20 DUP6 ADD SWAP5 POP PUSH1 0x20 DUP2 ADD SWAP1 POP PUSH3 0x6B0 JUMP JUMPDEST DUP7 DUP4 LT ISZERO PUSH3 0x6F7 JUMPI DUP5 DUP10 ADD MLOAD PUSH3 0x6F3 PUSH1 0x1F DUP10 AND DUP3 PUSH3 0x5E7 JUMP JUMPDEST DUP4 SSTORE POP JUMPDEST PUSH1 0x1 PUSH1 0x2 DUP9 MUL ADD DUP9 SSTORE POP POP POP JUMPDEST POP POP POP POP POP POP JUMP JUMPDEST PUSH32 0x4E487B7100000000000000000000000000000000000000000000000000000000 PUSH1 0x0 MSTORE PUSH1 0x32 PUSH1 0x4 MSTORE PUSH1 0x24 PUSH1 0x0 REVERT JUMPDEST PUSH2 0xDCE DUP1 PUSH3 0x74B PUSH1 0x0 CODECOPY PUSH1 0x0 RETURN INVALID PUSH1 0x80 PUSH1 0x40 MSTORE CALLVALUE DUP1 ISZERO PUSH2 0x10 JUMPI PUSH1 0x0 DUP1 REVERT JUMPDEST POP PUSH1 0x4 CALLDATASIZE LT PUSH2 0x137 JUMPI PUSH1 0x0 CALLDATALOAD PUSH1 0xE0 SHR DUP1 PUSH4 0x7DC93929 GT PUSH2 0xB8 JUMPI DUP1 PUSH4 0x93AF578D GT PUSH2 0x7C JUMPI DUP1 PUSH4 0x93AF578D EQ PUSH2 0x322 JUMPI DUP1 PUSH4 0x958BE696 EQ PUSH2 0x340 JUMPI DUP1 PUSH4 0xAAEF20EA EQ PUSH2 0x35E JUMPI DUP1 PUSH4 0xC41B5530 EQ PUSH2 0x37C JUMPI DUP1 PUSH4 0xE1D16B83 EQ PUSH2 0x39A JUMPI DUP1 PUSH4 0xF5B53E17 EQ PUSH2 0x3B8 JUMPI PUSH2 0x137 JUMP JUMPDEST DUP1 PUSH4 0x7DC93929 EQ PUSH2 0x27A JUMPI DUP1 PUSH4 0x86049598 EQ PUSH2 0x298 JUMPI DUP1 PUSH4 0x87A26673 EQ PUSH2 0x2C8 JUMPI DUP1 PUSH4 0x89EA642F EQ PUSH2 0x2E6 JUMPI DUP1 PUSH4 0x9032F58C EQ PUSH2 0x304 JUMPI PUSH2 0x137 JUMP JUMPDEST DUP1 PUSH4 0x454EF146 GT PUSH2 0xFF JUMPI DUP1 PUSH4 0x454EF146 EQ PUSH2 0x1E4 JUMPI DUP1 PUSH4 0x57CB2FC4 EQ PUSH2 0x202 JUMPI DUP1 PUSH4 0x6498DB88 EQ PUSH2 0x220 JUMPI DUP1 PUSH4 0x68895979 EQ PUSH2 0x23E JUMPI DUP1 PUSH4 0x6BAAA2E4 EQ PUSH2 0x25C JUMPI PUSH2 0x137 JUMP JUMPDEST DUP1 PUSH4 0x12A7B914 EQ PUSH2 0x13C JUMPI DUP1 PUSH4 0x1F903037 EQ PUSH2 0x15A JUMPI DUP1 PUSH4 0x343A875D EQ PUSH2 0x178 JUMPI DUP1 PUSH4 0x355EF27D EQ PUSH2 0x196 JUMPI DUP1 PUSH4 0x38CC4831 EQ PUSH2 0x1C6 JUMPI JUMPDEST PUSH1 0x0 DUP1 REVERT JUMPDEST PUSH2 0x144 PUSH2 0x3D6 JUMP JUMPDEST PUSH1 0x40 MLOAD PUSH2 0x151 SWAP2 SWAP1 PUSH2 0x739 JUMP JUMPDEST PUSH1 0x40 MLOAD DUP1 SWAP2 SUB SWAP1 RETURN JUMPDEST PUSH2 0x162 PUSH2 0x3EB JUMP JUMPDEST PUSH1 0x40 MLOAD PUSH2 0x16F SWAP2 SWAP1 PUSH2 0x76D JUMP JUMPDEST PUSH1 0x40 MLOAD DUP1 SWAP2 SUB SWAP1 RETURN JUMPDEST PUSH2 0x180 PUSH2 0x3F5 JUMP JUMPDEST PUSH1 0x40 MLOAD PUSH2 0x18D SWAP2 SWAP1 PUSH2 0x7A4 JUMP JUMPDEST PUSH1 0x40 MLOAD DUP1 SWAP2 SUB SWAP1 RETURN JUMPDEST PUSH2 0x1B0 PUSH1 0x4 DUP1 CALLDATASIZE SUB DUP2 ADD SWAP1 PUSH2 0x1AB SWAP2 SWAP1 PUSH2 0x7FA JUMP JUMPDEST PUSH2 0x40C JUMP JUMPDEST PUSH1 0x40 MLOAD PUSH2 0x1BD SWAP2 SWAP1 PUSH2 0x836 JUMP JUMPDEST PUSH1 0x40 MLOAD DUP1 SWAP2 SUB SWAP1 RETURN JUMPDEST PUSH2 0x1CE PUSH2 0x427 JUMP JUMPDEST PUSH1 0x40 MLOAD PUSH2 0x1DB SWAP2 SWAP1 PUSH2 0x892 JUMP JUMPDEST PUSH1 0x40 MLOAD DUP1 SWAP2 SUB SWAP1 RETURN JUMPDEST PUSH2 0x1EC PUSH2 0x451 JUMP JUMPDEST PUSH1 0x40 MLOAD PUSH2 0x1F9 SWAP2 SWAP1 PUSH2 0x8C9 JUMP JUMPDEST PUSH1 0x40 MLOAD DUP1 SWAP2 SUB SWAP1 RETURN JUMPDEST PUSH2 0x20A PUSH2 0x464 JUMP JUMPDEST PUSH1 0x40 MLOAD PUSH2 0x217 SWAP2 SWAP1 PUSH2 0x8C9 JUMP JUMPDEST PUSH1 0x40 MLOAD DUP1 SWAP2 SUB SWAP1 RETURN JUMPDEST PUSH2 0x228 PUSH2 0x47B JUMP JUMPDEST PUSH1 0x40 MLOAD PUSH2 0x235 SWAP2 SWAP1 PUSH2 0x836 JUMP JUMPDEST PUSH1 0x40 MLOAD DUP1 SWAP2 SUB SWAP1 RETURN JUMPDEST PUSH2 0x246 PUSH2 0x481 JUMP JUMPDEST PUSH1 0x40 MLOAD PUSH2 0x253 SWAP2 SWAP1 PUSH2 0x836 JUMP JUMPDEST PUSH1 0x40 MLOAD DUP1 SWAP2 SUB SWAP1 RETURN JUMPDEST PUSH2 0x264 PUSH2 0x48B JUMP JUMPDEST PUSH1 0x40 MLOAD PUSH2 0x271 SWAP2 SWAP1 PUSH2 0x76D JUMP JUMPDEST PUSH1 0x40 MLOAD DUP1 SWAP2 SUB SWAP1 RETURN JUMPDEST PUSH2 0x282 PUSH2 0x491 JUMP JUMPDEST PUSH1 0x40 MLOAD PUSH2 0x28F SWAP2 SWAP1 PUSH2 0x974 JUMP JUMPDEST PUSH1 0x40 MLOAD DUP1 SWAP2 SUB SWAP1 RETURN JUMPDEST PUSH2 0x2B2 PUSH1 0x4 DUP1 CALLDATASIZE SUB DUP2 ADD SWAP1 PUSH2 0x2AD SWAP2 SWAP1 PUSH2 0x7FA JUMP JUMPDEST PUSH2 0x51F JUMP JUMPDEST PUSH1 0x40 MLOAD PUSH2 0x2BF SWAP2 SWAP1 PUSH2 0x836 JUMP JUMPDEST PUSH1 0x40 MLOAD DUP1 SWAP2 SUB SWAP1 RETURN JUMPDEST PUSH2 0x2D0 PUSH2 0x543 JUMP JUMPDEST PUSH1 0x40 MLOAD PUSH2 0x2DD SWAP2 SWAP1 PUSH2 0x9AF JUMP JUMPDEST PUSH1 0x40 MLOAD DUP1 SWAP2 SUB SWAP1 RETURN JUMPDEST PUSH2 0x2EE PUSH2 0x549 JUMP JUMPDEST PUSH1 0x40 MLOAD PUSH2 0x2FB SWAP2 SWAP1 PUSH2 0x974 JUMP JUMPDEST PUSH1 0x40 MLOAD DUP1 SWAP2 SUB SWAP1 RETURN JUMPDEST PUSH2 0x30C PUSH2 0x5DB JUMP JUMPDEST PUSH1 0x40 MLOAD PUSH2 0x319 SWAP2 SWAP1 PUSH2 0xA75 JUMP JUMPDEST PUSH1 0x40 MLOAD DUP1 SWAP2 SUB SWAP1 RETURN JUMPDEST PUSH2 0x32A PUSH2 0x626 JUMP JUMPDEST PUSH1 0x40 MLOAD PUSH2 0x337 SWAP2 SWAP1 PUSH2 0x739 JUMP JUMPDEST PUSH1 0x40 MLOAD DUP1 SWAP2 SUB SWAP1 RETURN JUMPDEST PUSH2 0x348 PUSH2 0x637 JUMP JUMPDEST PUSH1 0x40 MLOAD PUSH2 0x355 SWAP2 SWAP1 PUSH2 0x836 JUMP JUMPDEST PUSH1 0x40 MLOAD DUP1 SWAP2 SUB SWAP1 RETURN JUMPDEST PUSH2 0x366 PUSH2 0x662 JUMP JUMPDEST PUSH1 0x40 MLOAD PUSH2 0x373 SWAP2 SWAP1 PUSH2 0x7A4 JUMP JUMPDEST PUSH1 0x40 MLOAD DUP1 SWAP2 SUB SWAP1 RETURN JUMPDEST PUSH2 0x384 PUSH2 0x675 JUMP JUMPDEST PUSH1 0x40 MLOAD PUSH2 0x391 SWAP2 SWAP1 PUSH2 0xB27 JUMP JUMPDEST PUSH1 0x40 MLOAD DUP1 SWAP2 SUB SWAP1 RETURN JUMPDEST PUSH2 0x3A2 PUSH2 0x6CD JUMP JUMPDEST PUSH1 0x40 MLOAD PUSH2 0x3AF SWAP2 SWAP1 PUSH2 0x892 JUMP JUMPDEST PUSH1 0x40 MLOAD DUP1 SWAP2 SUB SWAP1 RETURN JUMPDEST PUSH2 0x3C0 PUSH2 0x6F3 JUMP JUMPDEST PUSH1 0x40 MLOAD PUSH2 0x3CD SWAP2 SWAP1 PUSH2 0x9AF JUMP JUMPDEST PUSH1 0x40 MLOAD DUP1 SWAP2 SUB SWAP1 RETURN JUMPDEST PUSH1 0x0 PUSH1 0x2 DUP1 SLOAD SWAP1 PUSH2 0x100 EXP SWAP1 DIV PUSH1 0xFF AND SWAP1 POP SWAP1 JUMP JUMPDEST PUSH1 0x0 PUSH1 0x3 SLOAD SWAP1 POP SWAP1 JUMP JUMPDEST PUSH1 0x0 PUSH1 0x2 PUSH1 0x1 SWAP1 SLOAD SWAP1 PUSH2 0x100 EXP SWAP1 DIV PUSH1 0xFF AND SWAP1 POP SWAP1 JUMP JUMPDEST PUSH1 0x4 DUP2 PUSH1 0x5 DUP2 LT PUSH2 0x41C JUMPI PUSH1 0x0 DUP1 REVERT JUMPDEST ADD PUSH1 0x0 SWAP2 POP SWAP1 POP SLOAD DUP2 JUMP JUMPDEST PUSH1 0x0 PUSH1 0x2 PUSH1 0x3 SWAP1 SLOAD SWAP1 PUSH2 0x100 EXP SWAP1 DIV PUSH20 0xFFFFFFFFFFFFFFFFFFFFFFFFFFFFFFFFFFFFFFFF AND SWAP1 POP SWAP1 JUMP JUMPDEST PUSH1 0x2 PUSH1 0x0 SWAP1 SLOAD SWAP1 PUSH2 0x100 EXP SWAP1 DIV PUSH1 0x0 SIGNEXTEND DUP2 JUMP JUMPDEST PUSH1 0x0 PUSH1 0x2 PUSH1 0x0 SWAP1 SLOAD SWAP1 PUSH2 0x100 EXP SWAP1 DIV PUSH1 0x0 SIGNEXTEND SWAP1 POP SWAP1 JUMP JUMPDEST PUSH1 0x1 SLOAD DUP2 JUMP JUMPDEST PUSH1 0x0 PUSH1 0x1 SLOAD SWAP1 POP SWAP1 JUMP JUMPDEST PUSH1 0x3 SLOAD DUP2 JUMP JUMPDEST PUSH1 0xA DUP1 SLOAD PUSH2 0x49E SWAP1 PUSH2 0xB78 JUMP JUMPDEST DUP1 PUSH1 0x1F ADD PUSH1 0x20 DUP1 SWAP2 DIV MUL PUSH1 0x20 ADD PUSH1 0x40 MLOAD SWAP1 DUP2 ADD PUSH1 0x40 MSTORE DUP1 SWAP3 SWAP2 SWAP1 DUP2 DUP2 MSTORE PUSH1 0x20 ADD DUP3 DUP1 SLOAD PUSH2 0x4CA SWAP1 PUSH2 0xB78 JUMP JUMPDEST DUP1 ISZERO PUSH2 0x517 JUMPI DUP1 PUSH1 0x1F LT PUSH2 0x4EC JUMPI PUSH2 0x100 DUP1 DUP4 SLOAD DIV MUL DUP4 MSTORE SWAP2 PUSH1 0x20 ADD SWAP2 PUSH2 0x517 JUMP JUMPDEST DUP3 ADD SWAP2 SWAP1 PUSH1 0x0 MSTORE PUSH1 0x20 PUSH1 0x0 KECCAK256 SWAP1 JUMPDEST DUP2 SLOAD DUP2 MSTORE SWAP1 PUSH1 0x1 ADD SWAP1 PUSH1 0x20 ADD DUP1 DUP4 GT PUSH2 0x4FA JUMPI DUP3 SWAP1 SUB PUSH1 0x1F AND DUP3 ADD SWAP2 JUMPDEST POP POP POP POP POP DUP2 JUMP JUMPDEST PUSH1 0x9 DUP2 DUP2 SLOAD DUP2 LT PUSH2 0x52F JUMPI PUSH1 0x0 DUP1 REVERT JUMPDEST SWAP1 PUSH1 0x0 MSTORE PUSH1 0x20 PUSH1 0x0 KECCAK256 ADD PUSH1 0x0 SWAP2 POP SWAP1 POP SLOAD DUP2 JUMP JUMPDEST PUSH1 0x0 SLOAD DUP2 JUMP JUMPDEST PUSH1 0x60 PUSH1 0xA DUP1 SLOAD PUSH2 0x558 SWAP1 PUSH2 0xB78 JUMP JUMPDEST DUP1 PUSH1 0x1F ADD PUSH1 0x20 DUP1 SWAP2 DIV MUL PUSH1 0x20 ADD PUSH1 0x40 MLOAD SWAP1 DUP2 ADD PUSH1 0x40 MSTORE DUP1 SWAP3 SWAP2 SWAP1 DUP2 DUP2 MSTORE PUSH1 0x20 ADD DUP3 DUP1 SLOAD PUSH2 0x584 SWAP1 PUSH2 0xB78 JUMP JUMPDEST DUP1 ISZERO PUSH2 0x5D1 JUMPI DUP1 PUSH1 0x1F LT PUSH2 0x5A6 JUMPI PUSH2 0x100 DUP1 DUP4 SLOAD DIV MUL DUP4 MSTORE SWAP2 PUSH1 0x20 ADD SWAP2 PUSH2 0x5D1 JUMP JUMPDEST DUP3 ADD SWAP2 SWAP1 PUSH1 0x0 MSTORE PUSH1 0x20 PUSH1 0x0 KECCAK256 SWAP1 JUMPDEST DUP2 SLOAD DUP2 MSTORE SWAP1 PUSH1 0x1 ADD SWAP1 PUSH1 0x20 ADD DUP1 DUP4 GT PUSH2 0x5B4 JUMPI DUP3 SWAP1 SUB PUSH1 0x1F AND DUP3 ADD SWAP2 JUMPDEST POP POP POP POP POP SWAP1 POP SWAP1 JUMP JUMPDEST PUSH2 0x5E3 PUSH2 0x6FC JUMP JUMPDEST PUSH1 0x4 PUSH1 0x5 DUP1 PUSH1 0x20 MUL PUSH1 0x40 MLOAD SWAP1 DUP2 ADD PUSH1 0x40 MSTORE DUP1 SWAP3 SWAP2 SWAP1 DUP3 PUSH1 0x5 DUP1 ISZERO PUSH2 0x61C JUMPI PUSH1 0x20 MUL DUP3 ADD SWAP2 JUMPDEST DUP2 SLOAD DUP2 MSTORE PUSH1 0x20 ADD SWAP1 PUSH1 0x1 ADD SWAP1 DUP1 DUP4 GT PUSH2 0x608 JUMPI JUMPDEST POP POP POP POP POP SWAP1 POP SWAP1 JUMP JUMPDEST PUSH1 0x2 DUP1 SLOAD SWAP1 PUSH2 0x100 EXP SWAP1 DIV PUSH1 0xFF AND DUP2 JUMP JUMPDEST PUSH1 0x0 DUP1 PUSH1 0x1 SWAP1 POP PUSH1 0x0 PUSH1 0x2 SWAP1 POP DUP1 DUP2 DUP4 PUSH2 0x651 SWAP2 SWAP1 PUSH2 0xD0B JUMP JUMPDEST PUSH2 0x65B SWAP2 SWAP1 PUSH2 0xD56 JUMP JUMPDEST SWAP3 POP POP POP SWAP1 JUMP JUMPDEST PUSH1 0x2 PUSH1 0x1 SWAP1 SLOAD SWAP1 PUSH2 0x100 EXP SWAP1 DIV PUSH1 0xFF AND DUP2 JUMP JUMPDEST PUSH1 0x60 PUSH1 0x9 DUP1 SLOAD DUP1 PUSH1 0x20 MUL PUSH1 0x20 ADD PUSH1 0x40 MLOAD SWAP1 DUP2 ADD PUSH1 0x40 MSTORE DUP1 SWAP3 SWAP2 SWAP1 DUP2 DUP2 MSTORE PUSH1 0x20 ADD DUP3 DUP1 SLOAD DUP1 ISZERO PUSH2 0x6C3 JUMPI PUSH1 0x20 MUL DUP3 ADD SWAP2 SWAP1 PUSH1 0x0 MSTORE PUSH1 0x20 PUSH1 0x0 KECCAK256 SWAP1 JUMPDEST DUP2 SLOAD DUP2 MSTORE PUSH1 0x20 ADD SWAP1 PUSH1 0x1 ADD SWAP1 DUP1 DUP4 GT PUSH2 0x6AF JUMPI JUMPDEST POP POP POP POP POP SWAP1 POP SWAP1 JUMP JUMPDEST PUSH1 0x2 PUSH1 0x3 SWAP1 SLOAD SWAP1 PUSH2 0x100 EXP SWAP1 DIV PUSH20 0xFFFFFFFFFFFFFFFFFFFFFFFFFFFFFFFFFFFFFFFF AND DUP2 JUMP JUMPDEST PUSH1 0x0 DUP1 SLOAD SWAP1 POP SWAP1 JUMP JUMPDEST PUSH1 0x40 MLOAD DUP1 PUSH1 0xA0 ADD PUSH1 0x40 MSTORE DUP1 PUSH1 0x5 SWAP1 PUSH1 0x20 DUP3 MUL DUP1 CALLDATASIZE DUP4 CALLDATACOPY DUP1 DUP3 ADD SWAP2 POP POP SWAP1 POP POP SWAP1 JUMP JUMPDEST PUSH1 0x0 DUP2 ISZERO ISZERO SWAP1 POP SWAP2 SWAP1 POP JUMP JUMPDEST PUSH2 0x733 DUP2 PUSH2 0x71E JUMP JUMPDEST DUP3 MSTORE POP POP JUMP JUMPDEST PUSH1 0x0 PUSH1 0x20 DUP3 ADD SWAP1 POP PUSH2 0x74E PUSH1 0x0 DUP4 ADD DUP5 PUSH2 0x72A JUMP JUMPDEST SWAP3 SWAP2 POP POP JUMP JUMPDEST PUSH1 0x0 DUP2 SWAP1 POP SWAP2 SWAP1 POP JUMP JUMPDEST PUSH2 0x767 DUP2 PUSH2 0x754 JUMP JUMPDEST DUP3 MSTORE POP POP JUMP JUMPDEST PUSH1 0x0 PUSH1 0x20 DUP3 ADD SWAP1 POP PUSH2 0x782 PUSH1 0x0 DUP4 ADD DUP5 PUSH2 0x75E JUMP JUMPDEST SWAP3 SWAP2 POP POP JUMP JUMPDEST PUSH1 0x0 PUSH1 0xFF DUP3 AND SWAP1 POP SWAP2 SWAP1 POP JUMP JUMPDEST PUSH2 0x79E DUP2 PUSH2 0x788 JUMP JUMPDEST DUP3 MSTORE POP POP JUMP JUMPDEST PUSH1 0x0 PUSH1 0x20 DUP3 ADD SWAP1 POP PUSH2 0x7B9 PUSH1 0x0 DUP4 ADD DUP5 PUSH2 0x795 JUMP JUMPDEST SWAP3 SWAP2 POP POP JUMP JUMPDEST PUSH1 0x0 DUP1 REVERT JUMPDEST PUSH1 0x0 DUP2 SWAP1 POP SWAP2 SWAP1 POP JUMP JUMPDEST PUSH2 0x7D7 DUP2 PUSH2 0x7C4 JUMP JUMPDEST DUP2 EQ PUSH2 0x7E2 JUMPI PUSH1 0x0 DUP1 REVERT JUMPDEST POP JUMP JUMPDEST PUSH1 0x0 DUP2 CALLDATALOAD SWAP1 POP PUSH2 0x7F4 DUP2 PUSH2 0x7CE JUMP JUMPDEST SWAP3 SWAP2 POP POP JUMP JUMPDEST PUSH1 0x0 PUSH1 0x20 DUP3 DUP5 SUB SLT ISZERO PUSH2 0x810 JUMPI PUSH2 0x80F PUSH2 0x7BF JUMP JUMPDEST JUMPDEST PUSH1 0x0 PUSH2 0x81E DUP5 DUP3 DUP6 ADD PUSH2 0x7E5 JUMP JUMPDEST SWAP2 POP POP SWAP3 SWAP2 POP POP JUMP JUMPDEST PUSH2 0x830 DUP2 PUSH2 0x7C4 JUMP JUMPDEST DUP3 MSTORE POP POP JUMP JUMPDEST PUSH1 0x0 PUSH1 0x20 DUP3 ADD SWAP1 POP PUSH2 0x84B PUSH1 0x0 DUP4 ADD DUP5 PUSH2 0x827 JUMP JUMPDEST SWAP3 SWAP2 POP POP JUMP JUMPDEST PUSH1 0x0 PUSH20 0xFFFFFFFFFFFFFFFFFFFFFFFFFFFFFFFFFFFFFFFF DUP3 AND SWAP1 POP SWAP2 SWAP1 POP JUMP JUMPDEST PUSH1 0x0 PUSH2 0x87C DUP3 PUSH2 0x851 JUMP JUMPDEST SWAP1 POP SWAP2 SWAP1 POP JUMP JUMPDEST PUSH2 0x88C DUP2 PUSH2 0x871 JUMP JUMPDEST DUP3 MSTORE POP POP JUMP JUMPDEST PUSH1 0x0 PUSH1 0x20 DUP3 ADD SWAP1 POP PUSH2 0x8A7 PUSH1 0x0 DUP4 ADD DUP5 PUSH2 0x883 JUMP JUMPDEST SWAP3 SWAP2 POP POP JUMP JUMPDEST PUSH1 0x0 DUP2 PUSH1 0x0 SIGNEXTEND SWAP1 POP SWAP2 SWAP1 POP JUMP JUMPDEST PUSH2 0x8C3 DUP2 PUSH2 0x8AD JUMP JUMPDEST DUP3 MSTORE POP POP JUMP JUMPDEST PUSH1 0x0 PUSH1 0x20 DUP3 ADD SWAP1 POP PUSH2 0x8DE PUSH1 0x0 DUP4 ADD DUP5 PUSH2 0x8BA JUMP JUMPDEST SWAP3 SWAP2 POP POP JUMP JUMPDEST PUSH1 0x0 DUP2 MLOAD SWAP1 POP SWAP2 SWAP1 POP JUMP JUMPDEST PUSH1 0x0 DUP3 DUP3 MSTORE PUSH1 0x20 DUP3 ADD SWAP1 POP SWAP3 SWAP2 POP POP JUMP JUMPDEST PUSH1 0x0 JUMPDEST DUP4 DUP2 LT ISZERO PUSH2 0x91E JUMPI DUP1 DUP3 ADD MLOAD DUP2 DUP5 ADD MSTORE PUSH1 0x20 DUP2 ADD SWAP1 POP PUSH2 0x903 JUMP JUMPDEST PUSH1 0x0 DUP5 DUP5 ADD MSTORE POP POP POP POP JUMP JUMPDEST PUSH1 0x0 PUSH1 0x1F NOT PUSH1 0x1F DUP4 ADD AND SWAP1 POP SWAP2 SWAP1 POP JUMP JUMPDEST PUSH1 0x0 PUSH2 0x946 DUP3 PUSH2 0x8E4 JUMP JUMPDEST PUSH2 0x950 DUP2 DUP6 PUSH2 0x8EF JUMP JUMPDEST SWAP4 POP PUSH2 0x960 DUP2 DUP6 PUSH1 0x20 DUP7 ADD PUSH2 0x900 JUMP JUMPDEST PUSH2 0x969 DUP2 PUSH2 0x92A JUMP JUMPDEST DUP5 ADD SWAP2 POP POP SWAP3 SWAP2 POP POP JUMP JUMPDEST PUSH1 0x0 PUSH1 0x20 DUP3 ADD SWAP1 POP DUP2 DUP2 SUB PUSH1 0x0 DUP4 ADD MSTORE PUSH2 0x98E DUP2 DUP5 PUSH2 0x93B JUMP JUMPDEST SWAP1 POP SWAP3 SWAP2 POP POP JUMP JUMPDEST PUSH1 0x0 DUP2 SWAP1 POP SWAP2 SWAP1 POP JUMP JUMPDEST PUSH2 0x9A9 DUP2 PUSH2 0x996 JUMP JUMPDEST DUP3 MSTORE POP POP JUMP JUMPDEST PUSH1 0x0 PUSH1 0x20 DUP3 ADD SWAP1 POP PUSH2 0x9C4 PUSH1 0x0 DUP4 ADD DUP5 PUSH2 0x9A0 JUMP JUMPDEST SWAP3 SWAP2 POP POP JUMP JUMPDEST PUSH1 0x0 PUSH1 0x5 SWAP1 POP SWAP2 SWAP1 POP JUMP JUMPDEST PUSH1 0x0 DUP2 SWAP1 POP SWAP3 SWAP2 POP POP JUMP JUMPDEST PUSH1 0x0 DUP2 SWAP1 POP SWAP2 SWAP1 POP JUMP JUMPDEST PUSH2 0x9F3 DUP2 PUSH2 0x7C4 JUMP JUMPDEST DUP3 MSTORE POP POP JUMP JUMPDEST PUSH1 0x0 PUSH2 0xA05 DUP4 DUP4 PUSH2 0x9EA JUMP JUMPDEST PUSH1 0x20 DUP4 ADD SWAP1 POP SWAP3 SWAP2 POP POP JUMP JUMPDEST PUSH1 0x0 PUSH1 0x20 DUP3 ADD SWAP1 POP SWAP2 SWAP1 POP JUMP JUMPDEST PUSH2 0xA27 DUP2 PUSH2 0x9CA JUMP JUMPDEST PUSH2 0xA31 DUP2 DUP5 PUSH2 0x9D5 JUMP JUMPDEST SWAP3 POP PUSH2 0xA3C DUP3 PUSH2 0x9E0 JUMP JUMPDEST DUP1 PUSH1 0x0 JUMPDEST DUP4 DUP2 LT ISZERO PUSH2 0xA6D JUMPI DUP2 MLOAD PUSH2 0xA54 DUP8 DUP3 PUSH2 0x9F9 JUMP JUMPDEST SWAP7 POP PUSH2 0xA5F DUP4 PUSH2 0xA11 JUMP JUMPDEST SWAP3 POP POP PUSH1 0x1 DUP2 ADD SWAP1 POP PUSH2 0xA40 JUMP JUMPDEST POP POP POP POP POP POP JUMP JUMPDEST PUSH1 0x0 PUSH1 0xA0 DUP3 ADD SWAP1 POP PUSH2 0xA8A PUSH1 0x0 DUP4 ADD DUP5 PUSH2 0xA1E JUMP JUMPDEST SWAP3 SWAP2 POP POP JUMP JUMPDEST PUSH1 0x0 DUP2 MLOAD SWAP1 POP SWAP2 SWAP1 POP JUMP JUMPDEST PUSH1 0x0 DUP3 DUP3 MSTORE PUSH1 0x20 DUP3 ADD SWAP1 POP SWAP3 SWAP2 POP POP JUMP JUMPDEST PUSH1 0x0 DUP2 SWAP1 POP PUSH1 0x20 DUP3 ADD SWAP1 POP SWAP2 SWAP1 POP JUMP JUMPDEST PUSH1 0x0 PUSH1 0x20 DUP3 ADD SWAP1 POP SWAP2 SWAP1 POP JUMP JUMPDEST PUSH1 0x0 PUSH2 0xAD4 DUP3 PUSH2 0xA90 JUMP JUMPDEST PUSH2 0xADE DUP2 DUP6 PUSH2 0xA9B JUMP JUMPDEST SWAP4 POP PUSH2 0xAE9 DUP4 PUSH2 0xAAC JUMP JUMPDEST DUP1 PUSH1 0x0 JUMPDEST DUP4 DUP2 LT ISZERO PUSH2 0xB1A JUMPI DUP2 MLOAD PUSH2 0xB01 DUP9 DUP3 PUSH2 0x9F9 JUMP JUMPDEST SWAP8 POP PUSH2 0xB0C DUP4 PUSH2 0xABC JUMP JUMPDEST SWAP3 POP POP PUSH1 0x1 DUP2 ADD SWAP1 POP PUSH2 0xAED JUMP JUMPDEST POP DUP6 SWAP4 POP POP POP POP SWAP3 SWAP2 POP POP JUMP JUMPDEST PUSH1 0x0 PUSH1 0x20 DUP3 ADD SWAP1 POP DUP2 DUP2 SUB PUSH1 0x0 DUP4 ADD MSTORE PUSH2 0xB41 DUP2 DUP5 PUSH2 0xAC9 JUMP JUMPDEST SWAP1 POP SWAP3 SWAP2 POP POP JUMP JUMPDEST PUSH32 0x4E487B7100000000000000000000000000000000000000000000000000000000 PUSH1 0x0 MSTORE PUSH1 0x22 PUSH1 0x4 MSTORE PUSH1 0x24 PUSH1 0x0 REVERT JUMPDEST PUSH1 0x0 PUSH1 0x2 DUP3 DIV SWAP1 POP PUSH1 0x1 DUP3 AND DUP1 PUSH2 0xB90 JUMPI PUSH1 0x7F DUP3 AND SWAP2 POP JUMPDEST PUSH1 0x20 DUP3 LT DUP2 SUB PUSH2 0xBA3 JUMPI PUSH2 0xBA2 PUSH2 0xB49 JUMP JUMPDEST JUMPDEST POP SWAP2 SWAP1 POP JUMP JUMPDEST PUSH32 0x4E487B7100000000000000000000000000000000000000000000000000000000 PUSH1 0x0 MSTORE PUSH1 0x11 PUSH1 0x4 MSTORE PUSH1 0x24 PUSH1 0x0 REVERT JUMPDEST PUSH1 0x0 DUP2 PUSH1 0x1 SHR SWAP1 POP SWAP2 SWAP1 POP JUMP JUMPDEST PUSH1 0x0 DUP1 DUP3 SWAP2 POP DUP4 SWAP1 POP JUMPDEST PUSH1 0x1 DUP6 GT ISZERO PUSH2 0xC2F JUMPI DUP1 DUP7 DIV DUP2 GT ISZERO PUSH2 0xC0B JUMPI PUSH2 0xC0A PUSH2 0xBA9 JUMP JUMPDEST JUMPDEST PUSH1 0x1 DUP6 AND ISZERO PUSH2 0xC1A JUMPI DUP1 DUP3 MUL SWAP2 POP JUMPDEST DUP1 DUP2 MUL SWAP1 POP PUSH2 0xC28 DUP6 PUSH2 0xBD8 JUMP JUMPDEST SWAP5 POP PUSH2 0xBEF JUMP JUMPDEST SWAP5 POP SWAP5 SWAP3 POP POP POP JUMP JUMPDEST PUSH1 0x0 DUP3 PUSH2 0xC48 JUMPI PUSH1 0x1 SWAP1 POP PUSH2 0xD04 JUMP JUMPDEST DUP2 PUSH2 0xC56 JUMPI PUSH1 0x0 SWAP1 POP PUSH2 0xD04 JUMP JUMPDEST DUP2 PUSH1 0x1 DUP2 EQ PUSH2 0xC6C JUMPI PUSH1 0x2 DUP2 EQ PUSH2 0xC76 JUMPI PUSH2 0xCA5 JUMP JUMPDEST PUSH1 0x1 SWAP2 POP POP PUSH2 0xD04 JUMP JUMPDEST PUSH1 0xFF DUP5 GT ISZERO PUSH2 0xC88 JUMPI PUSH2 0xC87 PUSH2 0xBA9 JUMP JUMPDEST JUMPDEST DUP4 PUSH1 0x2 EXP SWAP2 POP DUP5 DUP3 GT ISZERO PUSH2 0xC9F JUMPI PUSH2 0xC9E PUSH2 0xBA9 JUMP JUMPDEST JUMPDEST POP PUSH2 0xD04 JUMP JUMPDEST POP PUSH1 0x20 DUP4 LT PUSH2 0x133 DUP4 LT AND PUSH1 0x4E DUP5 LT PUSH1 0xB DUP5 LT AND OR ISZERO PUSH2 0xCDA JUMPI DUP3 DUP3 EXP SWAP1 POP DUP4 DUP2 GT ISZERO PUSH2 0xCD5 JUMPI PUSH2 0xCD4 PUSH2 0xBA9 JUMP JUMPDEST JUMPDEST PUSH2 0xD04 JUMP JUMPDEST PUSH2 0xCE7 DUP5 DUP5 DUP5 PUSH1 0x1 PUSH2 0xBE5 JUMP JUMPDEST SWAP3 POP SWAP1 POP DUP2 DUP5 DIV DUP2 GT ISZERO PUSH2 0xCFE JUMPI PUSH2 0xCFD PUSH2 0xBA9 JUMP JUMPDEST JUMPDEST DUP2 DUP2 MUL SWAP1 POP JUMPDEST SWAP4 SWAP3 POP POP POP JUMP JUMPDEST PUSH1 0x0 PUSH2 0xD16 DUP3 PUSH2 0x7C4 JUMP JUMPDEST SWAP2 POP PUSH2 0xD21 DUP4 PUSH2 0x7C4 JUMP JUMPDEST SWAP3 POP PUSH2 0xD4E PUSH32 0xFFFFFFFFFFFFFFFFFFFFFFFFFFFFFFFFFFFFFFFFFFFFFFFFFFFFFFFFFFFFFFFF DUP5 DUP5 PUSH2 0xC38 JUMP JUMPDEST SWAP1 POP SWAP3 SWAP2 POP POP JUMP JUMPDEST PUSH1 0x0 PUSH2 0xD61 DUP3 PUSH2 0x7C4 JUMP JUMPDEST SWAP2 POP PUSH2 0xD6C DUP4 PUSH2 0x7C4 JUMP JUMPDEST SWAP3 POP DUP3 DUP3 MUL PUSH2 0xD7A DUP2 PUSH2 0x7C4 JUMP JUMPDEST SWAP2 POP DUP3 DUP3 DIV DUP5 EQ DUP4 ISZERO OR PUSH2 0xD91 JUMPI PUSH2 0xD90 PUSH2 0xBA9 JUMP JUMPDEST JUMPDEST POP SWAP3 SWAP2 POP POP JUMP INVALID LOG2 PUSH5 0x6970667358 0x22 SLT KECCAK256 0xB8 SIGNEXTEND CODECOPY CHAINID REVERT MUL MULMOD SHL 0xD9 LOG2 MOD 0x2A 0x21 ADD 0xB5 CALLDATASIZE 0xC SSTORE CALLCODE 0xD2 DUP13 PUSH27 0xABE8B593DC2F0AA423FF64736F6C63430008140033000000000000 "
				},
				"gasEstimates": {
					"creation": {
						"codeDepositCost": "706800",
						"executionCost": "infinite",
						"totalCost": "infinite"
					},
					"external": {
						"addressValue()": "2674",
						"arrayUint5Value(uint256)": "infinite",
						"arrayUintValue(uint256)": "infinite",
						"boolValue()": "2540",
						"bytes32Value()": "2540",
						"getAddress()": "2684",
						"getArrayUint()": "infinite",
						"getArrayUint5()": "infinite",
						"getBigUint()": "infinite",
						"getBool()": "2550",
						"getBytes32()": "2483",
						"getInt256()": "2569",
						"getInt8()": "2528",
						"getString()": "infinite",
						"getUint256()": "2526",
						"getUint8()": "2597",
						"int256Value()": "2496",
						"int8Value()": "2498",
						"stringValue()": "infinite",
						"uint256Value()": "2496",
						"uint8Value()": "2587"
					}
				},
				"methodIdentifiers": {
					"addressValue()": "e1d16b83",
					"arrayUint5Value(uint256)": "355ef27d",
					"arrayUintValue(uint256)": "86049598",
					"boolValue()": "93af578d",
					"bytes32Value()": "6baaa2e4",
					"getAddress()": "38cc4831",
					"getArrayUint()": "c41b5530",
					"getArrayUint5()": "9032f58c",
					"getBigUint()": "958be696",
					"getBool()": "12a7b914",
					"getBytes32()": "1f903037",
					"getInt256()": "f5b53e17",
					"getInt8()": "57cb2fc4",
					"getString()": "89ea642f",
					"getUint256()": "68895979",
					"getUint8()": "343a875d",
					"int256Value()": "87a26673",
					"int8Value()": "454ef146",
					"stringValue()": "7dc93929",
					"uint256Value()": "6498db88",
					"uint8Value()": "aaef20ea"
				}
			},
			"storageLayout": {
				"storage": [
					{
						"astId": 8,
						"contract": "CONTRACTS/Task_2.sol:DataTypesPractice",
						"label": "int256Value",
						"offset": 0,
						"slot": "0",
						"type": "t_int256"
					},
					{
						"astId": 11,
						"contract": "CONTRACTS/Task_2.sol:DataTypesPractice",
						"label": "uint256Value",
						"offset": 0,
						"slot": "1",
						"type": "t_uint256"
					},
					{
						"astId": 15,
						"contract": "CONTRACTS/Task_2.sol:DataTypesPractice",
						"label": "int8Value",
						"offset": 0,
						"slot": "2",
						"type": "t_int8"
					},
					{
						"astId": 18,
						"contract": "CONTRACTS/Task_2.sol:DataTypesPractice",
						"label": "uint8Value",
						"offset": 1,
						"slot": "2",
						"type": "t_uint8"
					},
					{
						"astId": 21,
						"contract": "CONTRACTS/Task_2.sol:DataTypesPractice",
						"label": "boolValue",
						"offset": 2,
						"slot": "2",
						"type": "t_bool"
					},
					{
						"astId": 24,
						"contract": "CONTRACTS/Task_2.sol:DataTypesPractice",
						"label": "addressValue",
						"offset": 3,
						"slot": "2",
						"type": "t_address"
					},
					{
						"astId": 27,
						"contract": "CONTRACTS/Task_2.sol:DataTypesPractice",
						"label": "bytes32Value",
						"offset": 0,
						"slot": "3",
						"type": "t_bytes32"
					},
					{
						"astId": 37,
						"contract": "CONTRACTS/Task_2.sol:DataTypesPractice",
						"label": "arrayUint5Value",
						"offset": 0,
						"slot": "4",
						"type": "t_array(t_uint256)5_storage"
					},
					{
						"astId": 45,
						"contract": "CONTRACTS/Task_2.sol:DataTypesPractice",
						"label": "arrayUintValue",
						"offset": 0,
						"slot": "9",
						"type": "t_array(t_uint256)dyn_storage"
					},
					{
						"astId": 48,
						"contract": "CONTRACTS/Task_2.sol:DataTypesPractice",
						"label": "stringValue",
						"offset": 0,
						"slot": "10",
						"type": "t_string_storage"
					}
				],
				"types": {
					"t_address": {
						"encoding": "inplace",
						"label": "address",
						"numberOfBytes": "20"
					},
					"t_array(t_uint256)5_storage": {
						"base": "t_uint256",
						"encoding": "inplace",
						"label": "uint256[5]",
						"numberOfBytes": "160"
					},
					"t_array(t_uint256)dyn_storage": {
						"base": "t_uint256",
						"encoding": "dynamic_array",
						"label": "uint256[]",
						"numberOfBytes": "32"
					},
					"t_bool": {
						"encoding": "inplace",
						"label": "bool",
						"numberOfBytes": "1"
					},
					"t_bytes32": {
						"encoding": "inplace",
						"label": "bytes32",
						"numberOfBytes": "32"
					},
					"t_int256": {
						"encoding": "inplace",
						"label": "int256",
						"numberOfBytes": "32"
					},
					"t_int8": {
						"encoding": "inplace",
						"label": "int8",
						"numberOfBytes": "1"
					},
					"t_string_storage": {
						"encoding": "bytes",
						"label": "string",
						"numberOfBytes": "32"
					},
					"t_uint256": {
						"encoding": "inplace",
						"label": "uint256",
						"numberOfBytes": "32"
					},
					"t_uint8": {
						"encoding": "inplace",
						"label": "uint8",
						"numberOfBytes": "1"
					}
				}
			},
			"userdoc": {
				"kind": "user",
				"methods": {},
				"version": 1
			}
		}
	}
}